:100000000C94D3000C9456060C942F060C940806FE
:100010000C94E1050C94FB000C94FB000C94BA05C5
:100020000C94FB000C94FB000C947D060C94EC06E5
:100030000C94FB000C94FB000C94FB000C94FB0054
:100040000C94FB000C94FB000C94FB000C94FB0044
:100050000C94FB000C94FB000C94FB000C947005BA
:100060000C94FB000C94FB000C94FB000C94FB0024
:100070000C94FB000C94FB000C94FB000C94FB0014
:100080000C94FB000C94FB000C94FB000C94FB0004
:100090000C94FB000C94FB000C94FB000C94FB00F4
:1000A0000C94FB000C94FB000C94FB00080B00026A
:1000B0000202000009040000010202000005240001
:1000C0001001052401010104240206052406000193
:1000D0000705810310004009040100020A00000026
:1000E00007050202400000070583024000000403E8
:1000F000090412010002EF02014041233780000190
:100100000102030141726475696E6F204C4C43001B
:1001100041726475696E6F204D6963726F000706E6
:1001200005040100080A0B0C0D0900000000240062
:1001300027002A002D0030000000000025002800C4
:100140002B002E0031000404040404030405020201
:100150000202040302020202060606060606040460
:1001600002020204040408020110408040102040F2
:10017000804080080204018040201002011080109D
:10018000204040200000000200090F00000304018D
:10019000000C000000000000000000000000000053
:1001A00000000000AE0A11241FBECFEFDAE0DEBF70
:1001B000CDBF11E0A0E0B1E0E4E4F6E102C00590BB
:1001C0000D92AC39B107D9F722E0ACE9B1E001C03A
:1001D0001D92A731B207E1F710E0C3EDD0E004C0F3
:1001E0002197FE010E94130BC23DD107C9F70E945F
:1001F0001E090C94200B0C940000EAE8F1E0249115
:10020000EBE6F1E03491ECE4F1E09491992309F408
:1002100030C02223E9F021502F30D0F4E22FF0E05B
:10022000EC5EFE4F0C94130B4201460123013A0190
:100230003E0128012801280149014F0153015701BE
:100240005D0128016101209180002F7720938000BB
:10025000E92FF0E0EE0FFF1FE85CFE4FA591B4918F
:100260009FB7F894EC91811132C030953E233C93B6
:100270009FBF0895209180002F7DE8CF20918000BE
:10028000277FE4CF24B52F7724BDE2CF24B52F7D7F
:10029000FBCF209190002F7720939000D9CF209111
:1002A00090002F7DF9CF20919000277FF5CF2091EE
:1002B000C0002F772093C000CBCF2091C0002F7DAE
:1002C000F9CF2091C200277F2093C200C1CF3E2BDF
:1002D000CECFEAE8F1E0E491E150EF3008F07CC0E5
:1002E000F0E0EB58FE4F0C94130B840189018E0152
:1002F0009801A201EC01EC01EC01AC01B601C001D6
:10030000CA01D701EC01DF0194B5906894BD87BDA7
:10031000089594B5906294BD88BD089520918000A1
:10032000206820938000909389008093880008952E
:100330002091800020622093800090938B00809316
:100340008A00089520918000286020938000909377
:100350008D0080938C000895209190002068209358
:1003600090009093990080939800089520919000B8
:1003700020622093900090939B0080939A000895B0
:100380002091900028602093900090939D0080938E
:100390009C0008959091C00090689093C000909147
:1003A000C0009F7B9093C0008093CF0008959091F0
:1003B000C00090629093C0008093D0000895909107
:1003C000C20098609093C2009091C2009B7F90936E
:1003D000C2008093D200089580E00C94FD00FC01DF
:1003E0008091C601882311F13FB7F89482E0809391
:1003F000E9002091F200822F90E01816190614F4FB
:1004000081E090E0882339F0289A44E64093C501C2
:100410004091F1004083222339F02091F200211114
:1004200003C02BE62093E8003FBF08958FEF9FEFB6
:1004300008952FB7F89483E08093E9009091E80045
:10044000892F807295FF04C09091F20080E4891B8F
:100450002FBF08958091BD0181110DC082E080936E
:10046000B90184E08093BA011092BC011092BB01E3
:1004700081E08093BD0189EB91E00895CF93DF93F4
:1004800090E0FC01EB59FE4F24918A5B9E4FFC01EA
:1004900084918823D1F090E0880F991FFC01E65DDC
:1004A000FE4FA591B491FC01E85CFE4FC591D4913B
:1004B00061110EC09FB7F8948C91E22FE0958E23C6
:1004C0008C932881E223E8839FBFDF91CF91089529
:1004D0008FB7F894EC91E22BEC938FBFF6CF82515B
:1004E000E82FF0E0E25EFE4FE49190917B008E2FCA
:1004F000880F880F80729F7D892B80937B00E77027
:10050000E064E0937C0080917A00806480937A00BC
:1005100080917A0086FDFCCF8091780090917900DF
:1005200008953FB7F8948091B5019091B601A091DC
:10053000B701B091B80126B5A89B05C02F3F19F0AF
:100540000196A11DB11D3FBFBA2FA92F982F882753
:10055000BC01CD01620F711D811D911D42E0660F2E
:10056000771F881F991F4A95D1F708958F929F9200
:10057000AF92BF92CF92DF92EF92FF924B015C015C
:100580000E9491026B017C010E9491026C197D090D
:100590008E099F09683E734081059105A8F321E00B
:1005A000821A9108A108B10888EEC80E83E0D81E0F
:1005B000E11CF11C81149104A104B10429F7FF90FE
:1005C000EF90DF90CF90BF90AF909F908F90089565
:1005D000089540919E0150919F0120919C0130917E
:1005E0009D0142175307B4F49091E8009570E1F330
:1005F0009091E80092FD19C08093F10080919E01D6
:1006000090919F0101968F739927892B19F48EEF92
:100610008093E80080919E0190919F0101969093B4
:100620009F0180939E0181E0089580E00895EF92FC
:10063000FF920F931F93CF93DF93F82E192FE62E7F
:10064000042F81E0860F880F0E94E90283E00E9458
:10065000E902CF2DD12FEC0EFD2EF11CCE15DF05BA
:10066000B9F007FF13C0FE0184910E94E902182F20
:1006700080E00E94E902812321968111EFCFDF9172
:10068000CF911F910F91FF90EF9008958881EDCF4A
:1006900081E0F5CFDF92EF92FF920F931F93CF93FC
:1006A000DF93D82E8A01EB017B01E40EF51ECE15F7
:1006B000DF0559F0D7FE12C0FE0184910E94E902C5
:1006C00021968111F4CF0FEF1FEFC801DF91CF9179
:1006D0001F910F91FF90EF90DF9008958881EECFEA
:1006E0000F931F93CF93DF931F92CDB7DEB782E0B6
:1006F000898342E450E06CEA70E080E80E944A039B
:100700000E942A02DC0112960D911C91011511051F
:1007100089F0D801ED91FC910280F381E02DBE01BA
:100720006F5F7F4FC801099597FD04C0F8010085F0
:100730001185ECCF89810F90DF91CF911F910F919F
:100740000895615030F02091F100FC012083019662
:10075000F8CF289A84E68093C50108958F929F92DE
:10076000AF92BF92CF92DF92EF92FF920F931F93BF
:10077000CF93DF936C017B018A0180910B01882369
:1007800009F45CC08091C601882309F457C08091A8
:10079000A20180FF05C08091E00082608093E000AC
:1007A000E801B12C8AEFA82E93E0892E2AE3922E3D
:1007B000209711F4BB20D9F10E94190281110AC0BF
:1007C000AA94AA20D9F161E070E080E090E00E9454
:1007D000B602EECF8C171D0611F00CF08C2F9FB7D0
:1007E000F8948092E9002091E80025FD02C09FBFA7
:1007F000DFCF282F30E0C21BD30BF701815020F050
:1008000041914093F100FACFE20EF31EBB2021F09C
:100810009092E800B12CEBCF8091E80085FDE7CF06
:100820009092E800BB24B394209709F3F3CF5D9A2C
:1008300084E68093A101101611063CF081E090E05F
:10084000F6019383828310E000E0C801DF91CF912D
:100850001F910F91FF90EF90DF90CF90BF90AF90DE
:100860009F908F900895CF93DF931F92CDB7DEB7FF
:100870006983DC01ED91FC910280F381E02D41E080
:1008800050E0BE016F5F7F4F09950F90DF91CF91D0
:10089000089583E08093E9008091F200882319F0A5
:1008A0008AE38093E80008950E94190290E0089579
:1008B000CF93DF931F92CDB7DEB7FC01848595857A
:1008C00097FD08C02FEF3FEF358724870F90DF910A
:1008D000CF910895CE0101960E94EF01019719F47E
:1008E000898190E0F3CF8FEF9FEFF0CF0F931F93AD
:1008F000CF93DF931F92CDB7DEB78C01FC018485C7
:10090000958597FF0BC0CE0101960E94EF010197DC
:1009100071F4898190E0F80195878487F8018485D6
:1009200095850F90DF91CF911F910F9108958FEFD3
:100930009FEFF1CFFC018485958597FD0BC09FB794
:10094000F89482E08093E9008091F2009FBF90E0EC
:10095000019608959FB7F89482E08093E900809112
:10096000F2009FBF90E00895FC0101900020E9F79C
:100970003197AF01481B590BBC0187EC91E00C94F7
:10098000AE03CF93DF930E94B404EC018FE291E0B9
:100990000E94B4048C0F9D1FDF91CF91089582E3D4
:1009A00091E00E94C1048091A8019091A901019653
:1009B0009093A9018093A80108958FE391E00E948C
:1009C000C1048091A8019091A90101979093A90178
:1009D0008093A80108958F929F92AF92BF92CF9279
:1009E000DF92EF92FF920F931F93CF93DF93CDB7D8
:1009F000DEB7A1970FB6F894DEBF0FBECDBF6C0176
:100A0000990FEE08FF08F7FE47C06DE287EC91E012
:100A10000E9433048C0122273327A9012C193D0998
:100A20004E095F0919A2CE0181967C019AE0892EB8
:100A3000912CA12CB12CCA01B901A50194010E94ED
:100A4000E20A605DF70162937F01211531054105DE
:100A5000510589F790E080E0309719F0CF010E94AE
:100A6000B404080F191F8FE291E00E94B404800FB4
:100A7000911FA1960FB6F894DEBF0FBECDBFDF91D8
:100A8000CF911F910F91FF90EF90DF90CF90BF908B
:100A9000AF909F908F900895A701960119A28E01A3
:100AA0000F5D1F4F8AE0C82ED12CE12CF12CCA011A
:100AB000B901A70196010E94E20A605DF801629304
:100AC0008F01211531054105510589F7309729F02E
:100AD000CF010E94B4048C01C6CF10E000E0C3CF68
:100AE0001F920F920FB60F9211242F933F938F9363
:100AF0009F93AF93BF938091B1019091B201A09168
:100B0000B301B091B4013091B00123E0230F2D3730
:100B100058F50196A11DB11D2093B0018093B1013C
:100B20009093B201A093B301B093B4018091B50149
:100B30009091B601A091B701B091B8010196A11DA5
:100B4000B11D8093B5019093B601A093B701B09306
:100B5000B801BF91AF919F918F913F912F910F90CD
:100B60000FBE0F901F90189526E8230F0296A11D27
:100B7000B11DD2CF1F920F920FB60F9211242F9357
:100B80003F934F935F936F937F938F939F93AF9315
:100B9000BF93EF93FF93E0911401F0911501099534
:100BA000FF91EF91BF91AF919F918F917F916F9145
:100BB0005F914F913F912F910F900FBE0F901F901B
:100BC00018951F920F920FB60F9211242F933F93F7
:100BD0004F935F936F937F938F939F93AF93BF9345
:100BE000EF93FF93E0911201F09113010995FF91AA
:100BF000EF91BF91AF919F918F917F916F915F9195
:100C00004F913F912F910F900FBE0F901F9018950D
:100C10001F920F920FB60F9211242F933F934F9371
:100C20005F936F937F938F939F93AF93BF93EF9354
:100C3000FF93E0911001F09111010995FF91EF915F
:100C4000BF91AF919F918F917F916F915F914F91E4
:100C50003F912F910F900FBE0F901F9018951F92EC
:100C60000F920FB60F9211242F933F934F935F93E0
:100C70006F937F938F939F93AF93BF93EF93FF9364
:100C8000E0910E01F0910F010995FF91EF91BF9155
:100C9000AF919F918F917F916F915F914F913F9114
:100CA0002F910F900FBE0F901F9018951F920F92CB
:100CB0000FB60F9211242F933F934F935F936F932F
:100CC0007F938F939F93AF93BF93EF93FF93E091A5
:100CD0000C01F0910D010995FF91EF91BF91AF913A
:100CE0009F918F917F916F915F914F913F912F9144
:100CF0000F900FBE0F901F9018951F920F920FB676
:100D00000F9211248F939F938091E1009091E100C5
:100D1000937F9093E10083FF0FC01092E90091E070
:100D20009093EB001092EC0092E39093ED00109200
:100D3000C60198E09093F00082FF22C093E0909368
:100D4000E9009091F200992319F09AE39093E8005A
:100D50009091A101992341F09091A101915090931C
:100D6000A101911101C05D989091C501992341F0B5
:100D70009091C50191509093C501911101C028989F
:100D800084FF18C08091E2008E7E81608093E20033
:100D90008091E1008F7E8093E1008091A2018E7EA0
:100DA00080618093A2019F918F910F900FBE0F9051
:100DB0001F90189580FFF7CF8091E2008E7E8061B2
:100DC0008093E2008091E1008E7E8093E10080912B
:100DD000A2018E7E8160E5CF1F920F920FB60F9217
:100DE0001124CF92DF92EF92FF920F931F932F93D4
:100DF0003F934F935F936F937F938F939F93AF93A3
:100E0000BF93EF93FF93CF93DF93CDB7DEB76C978C
:100E1000DEBFCDBF1092E9008091E80083FF25C0BE
:100E200068E0CE0145960E94A10382EF8093E8001E
:100E30008D8987FF39C09091E80090FFFCCF982FF3
:100E4000907609F034C19E894F89588D2F89F88C8E
:100E5000911131C0803861F58091A3018093F10038
:100E60001092F1008EEF8093E8006C960FB6F89424
:100E7000DEBF0FBECDBFDF91CF91FF91EF91BF914C
:100E8000AF919F918F917F916F915F914F913F9122
:100E90002F911F910F91FF90EF90DF90CF900F90C7
:100EA0000FBE0F901F9018959EEF9093E800C7CF4C
:100EB0001092F100D5CF913059F48111D3CF413048
:100EC000510581F68091A3018D7F8093A301CACF44
:100ED000933049F48111C6CF4130510519F6809104
:100EE000A3018260F2CF953041F48091E80080FF49
:100EF000FCCF20682093E300B5CF963009F0A9C05D
:100F00000B8D1C8D22E01092E90010929F0110922F
:100F10009E01F2122EC010929D0110929C010E941F
:100F200070031F8299E09983FA8291E09E8390EA90
:100F300098879AEF998720919E0130919F01275FB2
:100F40003F4F3C832B838D831092E90010929F01C9
:100F500010929E0110939D0100939C0149E050E086
:100F6000BE016F5F7F4F80E00E944A030E947003C2
:100F700079CF10939D0100939C010E942A02DC010D
:100F800012960D911C910115110509F451C1D8015A
:100F9000ED91FC910480F581E02DBE016B5E7F4FE9
:100FA000C8010995009709F03EC1F8010085118537
:100FB000EACFF3E0FF120EC08F89882309F440C006
:100FC000823061F440E86DE080E191E00E94170317
:100FD000811148CF81E28093EB0047CF813029F423
:100FE00040E86BE084E091E0F1CF833099F70E9414
:100FF0002A02DC011296ED90FC908E010F5F1F4FCC
:101000006801E114F10479F0D701ED91FC910680BB
:10101000F781E02DB801C7010995080F111DF701EF
:10102000E084F184EECFD8011C92F60101900020FB
:10103000E9F73197BF016C197D0940E0C601C6CFC1
:101040006EEE70E0FB01449150E080E80E944A039C
:1010500009CF973009F4BECF983021F481E0809316
:10106000F10000CF993009F0FDCE837009F0B2CFC6
:10107000E9E2F1E081E031E096E32191222371F091
:101080008093E9003093EB00DF0111972C912093BE
:10109000EC009093ED008F5F873079F78EE78093B7
:1010A000EA001092EA008F898093C601DBCE8B8D17
:1010B0009C8D1092E90010929F0110929E019093D6
:1010C0009D0180939C01898D811192C08E899D899B
:1010D000913A49F4813209F07DCF47E050E064E075
:1010E00071E080E0B3CF913209F074CF833269F4BC
:1010F0008F89988DB0E0A0E080930001909301016A
:10110000A0930201B0930301ADCE803269F48091C7
:10111000E80082FFFCCF67E084E091E00E94A10339
:101120008BEF8093E8009ECE823209F09BCE8F89B0
:1011300080930B01EEEFFFE7859194918B3F9C4DDF
:1011400051F1E0E0F8E08091040190910501A09157
:101150000601B0910701803B9440A105B105F1F46F
:1011600080910B0180FD1AC0EE3F8AE0F80789F5F7
:1011700087E797E791838083809160008093A00147
:1011800088E19BE00FB6F894A895809360000FBEAD
:101190009093600067CEEEEFFAE0D5CF8081918129
:1011A0008737974709F05ECEA895809160008861E7
:1011B000809360008091A00180936000EE3F2AE060
:1011C000F20789F08091FE0A9091FF0A9183808353
:1011D00049CE808191818737980751F29093FF0A19
:1011E0008093FE0AC5CF1092FF0A1092FE0A3ACEF3
:1011F0000E942A02DC0112960D911C910115110525
:1012000009F4E8CED801ED91FC910190F081E02D38
:10121000BE016B5E7F4FC8010995811123CEF80195
:1012200000851185EBCF181619060CF41BCED2CE13
:10123000F1E0FF12BECE62EF70E004CF789484B587
:10124000826084BD84B5816084BD85B5826085BDC2
:1012500085B5816085BD80916E00816080936E0050
:101260001092810080918100826080938100809142
:1012700081008160809381008091800081608093F3
:101280008000809191008260809391008091910014
:1012900081608093910080919000816080939000A4
:1012A0008091C10084608093C1008091C100826000
:1012B0008093C1008091C10081608093C1008091C2
:1012C000C30081608093C3008091C00082608093DE
:1012D000C0008091C20081608093C20080917A003A
:1012E000846080937A0080917A00826080937A0093
:1012F00080917A00816080937A0080917A00806882
:1013000080937A001092C6011092A3011092A2015C
:101310008091D70081608093D70080EA8093D800C5
:1013200089B5806189BD89B5826089BD09B400FE37
:10133000FDCF61E070E080E090E00E94B602809115
:10134000D8008F7C80618093D8008091E000807FFE
:101350008093E0008091E1008E7E8093E1008DE03B
:101360008093E200559A209A5D9828988FEF9FEF1E
:101370009093D4018093D3018CE491E00E94B40453
:1013800061E086E00E943E0260E082E00E943E0250
:1013900060E083E00E943E028FEC94E090930F01A6
:1013A00080930E01809169008C6080936900E99AB6
:1013B0008DED94E090930D0180930C018091690074
:1013C0008C7F816080936900E89A60E085E10E94EB
:1013D0003E02CC24CA9433E0D32EE12CF12C00E061
:1013E00010E082E10E946F0285E10E946F0228E610
:1013F00031E0DC010E94190BA70196010E94C30A8B
:10140000E9013093AF012093AE0161E086E00E94D4
:101410003E028AE590E00E946901CD2B41F5809162
:10142000AC019091AD010A9714F1C091AA01D0913D
:10143000AB012196D093AB01C093AA0182E591E064
:101440000E94C1048AE591E00E94B404CE010E948A
:10145000EB048AE691E00E94B4048091A801909187
:10146000A9010E94EB0482E591E00E94C1048091F1
:10147000AA019091AB01059709F05BC08091AC0186
:101480009091AD010A970CF454C08CE791E00E9452
:10149000C10482E891E00E94B4048091A601909179
:1014A000A7010E94EB0483E991E00E94B4048091BB
:1014B000A4019091A5010E94EB048CE791E00E94A9
:1014C000C1048091A8019091A9019093A7018093F4
:1014D000A6018091A8019091A9012091A4013091C9
:1014E000A501820F931F97FD01969595879590937F
:1014F000A5018093A4011092A9011092A801109255
:10150000AB011092AA0161E086E00E943E028FE7E3
:1015100090E00E94690160E177E280E090E00E9443
:10152000B60261E086E00E943E0282E390E00E9403
:1015300069018091AE019091AF019093AD018093CC
:10154000AC018091A8019091A9010E94EB040115C2
:10155000110509F446CF0E94000043CFE7ECF1E00B
:101560001382128288EE93E0A0E0B0E0848395833A
:10157000A683B7838AE191E0918380838FEF9FEF09
:10158000958784870895052E97FB1EF400940E948A
:10159000DA0A57FD07D00E94E20A07FC03D04EF496
:1015A0000C94DA0A50954095309521953F4F4F4F56
:1015B0005F4F089590958095709561957F4F8F4FFF
:1015C0009F4F0895A1E21A2EAA1BBB1BFD010DC05F
:1015D000AA1FBB1FEE1FFF1FA217B307E407F507E3
:1015E00020F0A21BB30BE40BF50B661F771F881FBF
:1015F000991F1A9469F760957095809590959B0155
:10160000AC01BD01CF010895A29FB001B39FC001FD
:10161000A39F700D811D1124911DB29F700D811D1E
:101620001124911D0895EE0FFF1F0590F491E02DF8
:1016300009940E94040BB7FF0895821B930B089531
:04164000F894FFCF4C
:10164400FFFFFFFF00E1000000000000E802E802E5
:10165400E802E802E802000000003304AE03540488
:1016640049049A045804760400C180810000000DE6
:101674000A00415F50696E5F5570202B2B2B00428E
:101684005F50696E5F5570202D2D2D005365747564
:1016940070002A2A2A2A2A2A2000726F756E645F33
:1016A400636F756E7465723A2000656E636F64656E
:1016B400725F636F756E7465723A20002D2D2D2D47
:1016C4002D006C6173745F355F636F756E74657242
:0C16D4003A20006D656469616E3A2000E8
:00000001FF
