:100000000C9406010C9407070C94E0060C94B906B6
:100010000C9492060C942E010C942E010C946B06F9
:100020000C942E010C942E010C942E070C94AB070B
:100030000C942E010C942E010C942E010C942E0184
:100040000C942E010C942E010C942E010C942E0174
:100050000C942E010C942E010C942E010C9421066C
:100060000C942E010C942E010C942E010C942E0154
:100070000C942E010C942E010C942E010C942E0144
:100080000C942E010C942E010C942E010C942E0134
:100090000C942E010C942E010C942E010C942E0124
:1000A0000C942E010C942E010C942E0105A84CCD1D
:1000B000B2D44EB93836A9020C50B9918688083CA2
:1000C000A6AAAA2ABE000000803F4E414E494E49D2
:1000D0005459494E46CDCCCC3D0AD7233C17B7D115
:1000E0003877CC2B329595E6241FB14F0A000020BB
:1000F000410000C84200401C4620BCBE4CCA1B0E3A
:100100005AAEC59D74080B000202020000090400EB
:100110000001020200000524001001052401010174
:10012000042402060524060001070581031000408F
:1001300009040100020A0000000705020240000055
:10014000070583024000000403090412010002EFC6
:100150000201404123378000010102030141726422
:1001600075696E6F204C4C430041726475696E6F07
:10017000204D6963726F00070605040100080A0B31
:100180000C0D0900000000240027002A002D00307B
:1001900000000000002300260029002C002F000092
:1001A000000000250028002B002E0031000404046C
:1001B000040403040502020202040302020202060E
:1001C00006060606060404020202040404080201EC
:1001D0001040804010204080408008020401804090
:1001E000201002011080102040402000000002007A
:1001F000090F0000030401000C00000000000000D3
:1002000000000000000000000000751611241FBE51
:10021000CFEFDAE0DEBFCDBF22E0A0EDB1E001C05C
:100220001D92A93FB207E1F711E0A0E0B1E0E4E7D9
:10023000F7E302C005900D92A03DB107D9F711E098
:10024000C6E0D1E004C02197FE010E94EB19C53041
:10025000D107C9F70E94DD090C94B81B0C9400006B
:1002600083E08093E9008091F200882319F08AE30B
:100270008093E8000895FC018091A402882311F185
:100280003FB7F89482E08093E9002091F200822F3A
:1002900090E01816190614F481E090E0882339F0F4
:1002A000289A44E64093A3024091F1004083222320
:1002B00039F02091F200211103C02BE62093E800D1
:1002C0003FBF08958FEF9FEF08952FB7F89483E015
:1002D0008093E9009091E800892F807295FF04C017
:1002E0009091F20080E4891B2FBF089580919B02BA
:1002F00081110DC082E08093970284E08093980280
:1003000010929A021092990281E080939B0287E9F1
:1003100092E0089581508F3008F047C0E82FF0E058
:10032000EC56FE4F0C94EB19B101B501A301A901E4
:10033000AD01D501D501D501B801BE01C201C6018B
:10034000CC01D501D001809180008F77809380000F
:100350000895809180008F7DF9CF80918000877F04
:10036000F5CF84B58F7784BD089584B58F7DFBCF9D
:10037000809190008F7780939000089580919000F5
:100380008F7DF9CF80919000877FF5CF8091C0005D
:100390008F778093C00008958091C0008F7DF9CF42
:1003A0008091C200877F8093C20008951F93CF93EE
:1003B000DF93E1EFF1E09491E2EDF1E0D491E3EB32
:1003C000F1E0C491CC23B9F0182F992319F0892FAB
:1003D0000E948A01EC2FF0E0EE0FFF1FE156FE4F66
:1003E000A591B4918FB7F894EC91111108C0D095F4
:1003F000DE23DC938FBFDF91CF911F910895DE2B19
:10040000F8CFCF93DF93282F30E0F901E551FE4F6D
:100410008491F901E453FE4FD491F901E355FE4F65
:10042000C491CC23A1F081110E948A01EC2FF0E04D
:10043000EE0FFF1FEF56FE4FA591B491EC91ED2307
:1004400081E090E009F480E0DF91CF91089580E0B1
:1004500090E0FACFCF93DF9390E0FC01E453FE4F9E
:10046000249183559E4FFC0184918823C9F090E02C
:10047000880F991FFC01ED57FE4FA591B491FC0127
:10048000E156FE4FC591D49161110DC09FB7F8940C
:100490008C91209582238C938881282328839FBF69
:1004A000DF91CF910895623051F49FB7F8943C9159
:1004B000822F809583238C93E8812E2BEFCF8FB7EB
:1004C000F894EC912E2B2C938FBFEACF8251E82F1A
:1004D000F0E0E958FE4FE49190917B008E2F880F59
:1004E000880F80729F7D892B80937B00E770E0648A
:1004F000E0937C0080917A00806480937A00809100
:100500007A0086FDFCCF8091780090917900089563
:100510003FB7F8948091930290919402A091950234
:10052000B091960226B5A89B05C02F3F19F0019601
:10053000A11DB11D3FBFBA2FA92F982F8827BC013D
:10054000CD01620F711D811D911D42E0660F771F65
:10055000881F991F4A95D1F70895CF92DF92EF92A5
:10056000FF920E9488026B017C010E9488026C1934
:100570007D098E099F09683E734081059105A8F3A6
:10058000FF90EF90DF90CF9008950C94300182E0BF
:100590000E94010221E0892B09F420E02093DA0176
:1005A0008091D8019091DA0121E08227891310C04F
:1005B0003091DB012091DA0180918C0290918D02C3
:1005C000329F800D911D112490938D0280938C0297
:1005D0008091DA018093D801089583E00E9401029E
:1005E00021E0892B09F420E02093DB018091D901DF
:1005F0009091DB0121E08227891310C080918C0249
:1006000090918D023091DB012091DA01329F8019A7
:100610009109112490938D0280938C028091DB01CB
:100620008093D901089508954091D2015091D3014A
:100630002091D0013091D10142175307B4F4909129
:10064000E8009570E1F39091E80092FD19C0809365
:10065000F1008091D2019091D30101968F73992777
:10066000892B19F48EEF8093E8008091D20190914C
:10067000D30101969093D3018093D20181E0089534
:1006800080E00895EF92FF920F931F93CF93DF9333
:10069000F82E192FE62E042F81E0860F880F0E9476
:1006A000140383E00E941403CF2DD12FEC0EFD2EF6
:1006B000F11CCE15DF05B9F007FF13C0FE018491D0
:1006C0000E941403182F80E00E94140381232196B6
:1006D0008111EFCFDF91CF911F910F91FF90EF909C
:1006E00008958881EDCF81E0F5CFDF92EF92FF9200
:1006F0000F931F93CF93DF93D82E8A01EB017B01D9
:10070000E40EF51ECE15DF0559F0D7FE12C0FE012E
:1007100084910E94140321968111F4CF0FEF1FEFF3
:10072000C801DF91CF911F910F91FF90EF90DF9063
:1007300008958881EECF0F931F93CF93DF931F927D
:10074000CDB7DEB782E0898342E450E065E071E036
:1007500080E80E9475030E947601DC0112960D91DB
:100760001C910115110589F0D801ED91FC910280D1
:10077000F381E02DBE016F5F7F4FC801099597FDA2
:1007800004C0F80100851185ECCF89810F90DF91BD
:10079000CF911F910F910895615030F02091F10099
:1007A000FC0120830196F8CF289A84E68093A30267
:1007B00008958F929F92AF92BF92CF92DF92EF9265
:1007C000FF920F931F93CF93DF936C017B018A01FC
:1007D00080910B01882309F458C08091A4028823DA
:1007E00009F453C08091D60180FF05C08091E000DC
:1007F00082608093E000E801B12C8AEFA82E93E09C
:10080000892E2AE3922E209711F4BB20B9F10E9481
:100810006501811106C0AA94AA20B9F10E94AD0217
:10082000F2CF8C171D0611F00CF08C2F9FB7F894A7
:100830008092E9002091E80025FD02C09FBFE3CF30
:10084000282F30E0C21BD30BF701815020F04191DB
:100850004093F100FACFE20EF31EBB2021F09092FC
:10086000E800B12CEBCF8091E80085FDE7CF9092B6
:10087000E800BB24B394209709F3F3CF5D9A84E694
:100880008093D501101611063CF081E090E0F6014E
:100890009383828310E000E0C801DF91CF911F9124
:1008A0000F91FF90EF90DF90CF90BF90AF909F900F
:1008B0008F900895CF93DF931F92CDB7DEB76983F2
:1008C000DC01ED91FC910280F381E02D41E050E0EC
:1008D000BE016F5F7F4F09950F90DF91CF91089513
:1008E0000E94650190E00895CF93DF931F92CDB7EA
:1008F000DEB7FC018485958597FD08C02FEF3FEF9B
:10090000358724870F90DF91CF910895CE0101960E
:100910000E943B01019719F4898190E0F3CF8FEF9A
:100920009FEFF0CF0F931F93CF93DF931F92CDB71D
:10093000DEB78C01FC018485958597FF0BC0CE0145
:1009400001960E943B01019771F4898190E0F801C2
:1009500095878487F801848595850F90DF91CF91E5
:100960001F910F9108958FEF9FEFF1CFFC018485C8
:10097000958597FD0BC09FB7F89482E08093E900BE
:100980008091F2009FBF90E0019608959FB7F89480
:1009900082E08093E9008091F2009FBF90E008958B
:1009A000FC0101900020E9F73197AF01481B590B7A
:1009B000BC0185EA92E00C94D9038F929F92AF928A
:1009C000BF920F931F93CF93DF93CDB7DEB7A1975D
:1009D0000FB6F894DEBF0FBECDBF19A2423008F4A7
:1009E0004AE08E010F5D1F4F842E912CB12CA12C5B
:1009F000A50194010E94C919E62FB901CA01EA3084
:100A0000F4F4E05DD801EE938D01232B242B252BEC
:100A100079F790E080E0109719F0CD010E94D004A2
:100A2000A1960FB6F894DEBF0FBECDBFDF91CF9178
:100A30001F910F91BF90AF909F908F900895E95CA8
:100A4000E1CF0C94D0044F925F926F927F928F927D
:100A50009F92AF92BF92CF92DF92EF92FF926B0183
:100A60007C01AC019B010E941B1B882381F089E45F
:100A700091E0FF90EF90DF90CF90BF90AF909F906C
:100A80008F907F906F905F904F900C94D0044601B0
:100A90005701E894B7F82FEF3FEF4FE75FE7C50145
:100AA000B4010E941B1B81110DC02FEF3FEF4FE7D8
:100AB0005FE7C501B4010E94511818161CF48DE4BB
:100AC00091E0D7CF2FEF3FEF4FE75FE4C701B601CB
:100AD0000E940E1B18161CF481E591E0CACF2FEF7F
:100AE0003FEF4FE75FECC701B6010E94511887FD49
:100AF000F3CF20E030E0A901C701B6010E945118F0
:100B0000B12CA12C87FF0AC06DE285EA92E00E9419
:100B10005A045C01F7FAF094F7F8F0942AE037ED04
:100B200043EA5BE3C701B6010E94FA192B013C01BD
:100B30000E94DF1A6B017C010E9456189B01AC01D8
:100B4000C301B2010E94F9192B013C014AE0C7011F
:100B5000B6010E94DD047C01EA0CFB1C6EE285EA12
:100B600092E00E945A04E80EF91E20E030E040E2D4
:100B700051E4C301B2010E94B7182B013C010E944D
:100B8000DF1A4B01B12CA12C4AE0C501B4010E942F
:100B9000DD04E80EF91EC501B4010E9456189B0140
:100BA000AC01C301B2010E94F91920E030E040E23B
:100BB00051E40E94B7180E94DF1A90E080E04AE0FA
:100BC0000E94DD048E0D9F1DFF90EF90DF90CF906F
:100BD000BF90AF909F908F907F906F905F904F905D
:100BE0000895CF92DF92EF92FF92CF93DF936C0143
:100BF000990FEE08FF08F7FE19C06DE285EA92E052
:100C00000E945A04EC0166277727CB016C197D09F5
:100C10008E099F094AE00E94DD048C0F9D1FDF9121
:100C2000CF91FF90EF90DF90CF9008954AE0C701F9
:100C3000B601DF91CF91FF90EF90DF90CF900C94B1
:100C4000DD041F920F920FB60F9211242F933F9342
:100C50008F939F93AF93BF9380918F029091900257
:100C6000A0919102B091920230918E0223E0230F65
:100C70002D3758F50196A11DB11D20938E0280934A
:100C80008F0290939002A0939102B0939202809170
:100C9000930290919402A0919502B09196020196D0
:100CA000A11DB11D8093930290939402A09395028D
:100CB000B0939602BF91AF919F918F913F912F91E9
:100CC0000F900FBE0F901F90189526E8230F0296E5
:100CD000A11DB11DD2CF1F920F920FB60F921124FA
:100CE0002F933F934F935F936F937F938F939F9334
:100CF000AF93BF93EF93FF93E0911401F09115012F
:100D00000995FF91EF91BF91AF919F918F917F9145
:100D10006F915F914F913F912F910F900FBE0F9068
:100D20001F9018951F920F920FB60F9211242F93B8
:100D30003F934F935F936F937F938F939F93AF9363
:100D4000BF93EF93FF93E0911201F0911301099586
:100D5000FF91EF91BF91AF919F918F917F916F9193
:100D60005F914F913F912F910F900FBE0F901F9069
:100D700018951F920F920FB60F9211242F933F9345
:100D80004F935F936F937F938F939F93AF93BF9393
:100D9000EF93FF93E0911001F09111010995FF91FC
:100DA000EF91BF91AF919F918F917F916F915F91E3
:100DB0004F913F912F910F900FBE0F901F9018955C
:100DC0001F920F920FB60F9211242F933F934F93C0
:100DD0005F936F937F938F939F93AF93BF93EF93A3
:100DE000FF93E0910E01F0910F010995FF91EF91B2
:100DF000BF91AF919F918F917F916F915F914F9133
:100E00003F912F910F900FBE0F901F9018951F923A
:100E10000F920FB60F9211242F933F934F935F932E
:100E20006F937F938F939F93AF93BF93EF93FF93B2
:100E3000E0910C01F0910D010995FF91EF91BF91A7
:100E4000AF919F918F917F916F915F914F913F9162
:100E50002F910F900FBE0F901F9018951F920F9219
:100E60000FB60F9211242F933F934F935F936F937D
:100E70007F938F939F93AF93BF93CF93EF93FF9302
:100E8000C091E1008091E100837F8093E100C3FF86
:100E90000FC01092E90081E08093EB001092EC000B
:100EA00082E38093ED001092A40288E08093F0002A
:100EB000C2FF1AC00E9430018091D501882341F001
:100EC0008091D50181508093D501811101C05D9839
:100ED0008091A302882341F08091A30281508093E6
:100EE000A302811101C02898C4FF23C08091E200B1
:100EF0008E7E81608093E2008091E1008F7E8093FE
:100F0000E1008091D6018E7E80618093D601FF91B1
:100F1000EF91CF91BF91AF919F918F917F916F9101
:100F20005F914F913F912F910F900FBE0F901F90A7
:100F30001895C0FFECCF8091E2008E7E8061809397
:100F4000E2008091E1008E7E8093E1008091D601E5
:100F50008E7E8160DACF1F920F920FB60F9211240E
:100F6000CF92DF92EF92FF920F931F932F933F93B5
:100F70004F935F936F937F938F939F93AF93BF93A1
:100F8000EF93FF93CF93DF93CDB7DEB76C97DEBFC0
:100F9000CDBF1092E9008091E80083FF25C068E092
:100FA000CE0145960E94CC0382EF8093E8008D89A4
:100FB00087FF39C09091E80090FFFCCF982F907682
:100FC00009F034C19E894F89588D2F89F88C911171
:100FD00031C0803861F58091D7018093F100109283
:100FE000F1008EEF8093E8006C960FB6F894DEBFA8
:100FF0000FBECDBFDF91CF91FF91EF91BF91AF9128
:101000009F918F917F916F915F914F913F912F9120
:101010001F910F91FF90EF90DF90CF900F900FBE38
:101020000F901F9018959EEF9093E800C7CF1092F5
:10103000F100D5CF913059F48111D3CF4130510512
:1010400081F68091D7018D7F8093D701CACF9330ED
:1010500049F48111C6CF4130510519F68091D7016D
:101060008260F2CF953041F48091E80080FFFCCFA0
:1010700020682093E300B5CF963009F0A9C00B8D0E
:101080001C8D22E01092E9001092D3011092D2013F
:10109000F2122EC01092D1011092D0010E949B0337
:1010A0001F8299E09983FA8291E09E8390EA988763
:1010B0009AEF99872091D2013091D301275F3F4F5A
:1010C0003C832B838D831092E9001092D301109200
:1010D000D2011093D1010093D00149E050E0BE014C
:1010E0006F5F7F4F80E00E9475030E949B0379CF62
:1010F0001093D1010093D0010E947601DC01129679
:101100000D911C910115110509F451C1D801ED9102
:10111000FC910480F581E02DBE016B5E7F4FC8011C
:101120000995009709F03EC1F80100851185EACFC5
:10113000F3E0FF120EC08F89882309F440C082308B
:1011400061F440E86DE089E691E00E94420381117C
:1011500048CF81E28093EB0047CF813029F440E80B
:101160006BE08DE591E0F1CF833099F70E94760135
:10117000DC011296ED90FC908E010F5F1F4F68010D
:10118000E114F10479F0D701ED91FC910680F7812B
:10119000E02DB801C7010995080F111DF701E08482
:1011A000F184EECFD8011C92F60101900020E9F7FE
:1011B0003197BF016C197D0940E0C601C6CF67E4D5
:1011C00071E0FB01449150E080E80E94750309CF73
:1011D000973009F4BECF983021F481E08093F1007C
:1011E00000CF993009F0FDCE837009F0B2CFE3E46F
:1011F000F1E081E031E096E32191222371F08093C8
:10120000E9003093EB00DF0111972C912093EC0063
:101210009093ED008F5F873079F78EE78093EA0037
:101220001092EA008F898093A402DBCE8B8D9C8D77
:101230001092E9001092D3011092D2019093D10143
:101240008093D001898D811192C08E899D89913AB8
:1012500049F4813209F07DCF47E050E064E071E06D
:1012600080E0B3CF913209F074CF833269F48F8973
:10127000988DB0E0A0E08093000190930101A093CD
:101280000201B0930301ADCE803269F48091E80091
:1012900082FFFCCF67E084E091E00E94CC038BEFFB
:1012A0008093E8009ECE823209F09BCE8F89809396
:1012B0000B01EEEFFFE7859194918B3F9C4D51F12F
:1012C000E0E0F8E08091040190910501A091060111
:1012D000B0910701803B9440A105B105F1F48091E4
:1012E0000B0180FD1AC0EE3F8AE0F80789F587E719
:1012F00097E791838083809160008093D40188E197
:101300009BE00FB6F894A895809360000FBE909371
:10131000600067CEEEEFFAE0D5CF8081918187370C
:10132000974709F05ECEA895809160008861809310
:1013300060008091D40180936000EE3F2AE0F207C4
:1013400089F08091FE0A9091FF0A9183808349CEB3
:10135000808191818737980751F29093FF0A80939B
:10136000FE0AC5CF1092FF0A1092FE0A3ACE0E94E2
:101370007601DC0112960D911C910115110509F4FD
:10138000E8CED801ED91FC910190F081E02DBE01F5
:101390006B5E7F4FC8010995811123CEF80100854E
:1013A0001185EBCF181619060CF41BCED2CEF1E046
:1013B000FF12BECE6BE471E004CFCF93DF93CDB7C5
:1013C000DEB72A970FB6F894DEBF0FBECDBF789474
:1013D00084B5826084BD84B5816084BD85B582603A
:1013E00085BD85B5816085BD80916E0081608093EB
:1013F0006E00109281008091810082608093810054
:101400008091810081608093810080918000816063
:101410008093800080919100826080939100809100
:101420009100816080939100809190008160809311
:1014300090008091C10084608093C1008091C100C0
:1014400082608093C1008091C10081608093C1005F
:101450008091C30081608093C3008091C00082604E
:101460008093C0008091C20081608093C20080910F
:101470007A00846080937A0080917A008260809301
:101480007A0080917A00816080937A0080917A005E
:10149000806880937A001092A4021092D701109273
:1014A000D6018091D70081608093D70080EA809335
:1014B000D80089B5806189BD89B5826089BD09B4CC
:1014C00000FEFDCF0E94AD028091D8008F7C80612C
:1014D0008093D8008091E000807F8093E00080912D
:1014E000E1008E7E8093E1008DE08093E200559ACA
:1014F000209A5D9828988FEF9FEF9093B202809387
:10150000B10210922B0210922C0210922D02109216
:101510002E0210922F02109230021092310210927D
:10152000320210923302109234021092350210925D
:10153000360210924B0210924C0210924D02109201
:101540004E0210924F0210925002109251021092CD
:1015500052021092530210925402109255021092AD
:10156000560210926C0210926D0210926E0210924E
:101570006F02109270021092710210927202109219
:1015800073021092740210927502109276021092F9
:10159000770260E085E10E942A0260E082E10E9419
:1015A0002A0261E086E00E942A0262E082E00E9454
:1015B0002A0262E083E00E942A0287EC92E0909384
:1015C0000F0180930E0180916900837F8460809376
:1015D0006900E99A8DEE92E090930D0180930C01E1
:1015E000809169008C7F816080936900E89A83E034
:1015F0000E94010221E0892B09F420E02093DB0105
:1016000082E00E94010221E0892B09F420E020936E
:10161000DA018091DB018093D9018091DA01809316
:10162000D8012FB7F89480918F0290919002A091E9
:101630009102B09192022FBF80937C0290937D0221
:10164000A0937E02B0937F020E948802609388027A
:101650007093890280938A0290938B0201E090E05C
:10166000292E90E0392E1092EE012FE120931601E1
:1016700085EA92E00E94B604181619060CF004C31D
:1016800010E085EA92E00E94B604103208F01FE1F3
:10169000A12FB0E0A251BE4FBA83A9831816190634
:1016A0004CF485EA92E00E947404E981FA81808317
:1016B0001F5FE7CFA981BA811C9265E571E08EEECC
:1016C00091E00E94AC16BC0182EE91E00E94B11B39
:1016D00065E571E090E080E00E94AC160E948E16F5
:1016E0009093E1018093E00165E571E090E080E096
:1016F0000E94AC160E948A166093DC017093DD0193
:101700008093DE019093DF0167E571E082EE91E066
:101710000E94A81B892B09F0D3C06091120270911E
:10172000130280911402909115020E94230585E511
:1017300091E00E94210560916402709165028091A0
:101740006602909167020E94230585E591E00E9460
:10175000210560916C0270916D0280916E029091F2
:101760006F020E94230585E591E00E9421056091AA
:101770003702709138028091390290913A020E94AA
:10178000230585E591E00E94210560918402709116
:10179000850280918602909187020E94230585E54B
:1017A00091E00E94210560915B0270915C02809142
:1017B0005D0290915E020E94230585E591E00E9402
:1017C00021056091570270915802809159029091C1
:1017D0005A020E94230585E591E00E94210560914F
:1017E0001702709118028091190290911A020E94BA
:1017F000230585E591E00E94210560912B027091FF
:101800002C0280912D0290912E020E94230585E5E5
:1018100091E00E94210560916002709161028091C7
:101820006202909163020E94230585E591E00E9487
:1018300021056091270270912802809129029091E0
:101840002A020E94230585E591E00E94210560910E
:101850004B0270914C0280914D0290914E020E9479
:10186000230585E591E00E94210560914702709172
:1018700048028091490290914A020E94230585E521
:1018800091E00E94210560913F0270914002809199
:101890004102909142020E94230585E591E00E9459
:1018A000210560910E0270910F0290E080E04AE005
:1018B0000E94DD0485E591E00E9421050E9430012F
:1018C0006BE571E082EE91E00E94A81B892BE9F59F
:1018D0008FE591E00E94210580912B0190912C01D0
:1018E0000E94F1058DE691E00E94210580915F0242
:1018F00090E00E94F10580E891E00E94210580912E
:101900002F0190E00E94F10589E891E00E942105F5
:101910008091220290E00E94F10586E991E00E9408
:1019200021058091160290E00E94F10580EA91E085
:101930000E94210580911B0290E00E94F10585E53F
:1019400091E00E9421050E94300167EA71E082EE79
:1019500091E00E94A81B892B09F05CC010925F02E5
:10196000E4E0F0E0F0932C01E0932B0110922202CE
:10197000109211021092160210921B028DEC9CEC38
:10198000ACECBDE380931F0190932001A093210153
:10199000B093220180E090E0A0E8B0E480932301BE
:1019A00090932401A0932501B09326011092230265
:1019B00010922402109225021092260280E090E0FC
:1019C000A0E0BFE38093270190932801A093290111
:1019D000B0932A01109243021092440210924502E1
:1019E0001092460210923B0210923C0210923D026D
:1019F00010923E02109260021092610210926202F6
:101A0000109263021092470210924802109249020B
:101A100010924A026BEA71E082EE91E00E94A81BEC
:101A2000892B51F421E08091E0019091E101892B13
:101A300009F420E020932F016FEA71E082EE91E03B
:101A40000E94A81B892B51F421E08091E001909124
:101A5000E101892B09F420E02093220263EB71E07D
:101A600082EE91E00E94A81B892B51F521E0809124
:101A7000E0019091E101892B09F420E020935F02BD
:101A800010925B0210925C0210925D0210925E0254
:101A90001092640210926502109266021092670220
:101AA0001092600210926102109262021092630220
:101AB00010924702109248021092490210924A0274
:101AC00067EB71E082EE91E00E94A81B892B51F434
:101AD00021E08091E0019091E101892B09F420E05F
:101AE000209316026BEB71E082EE91E00E94A81B3E
:101AF000892B51F421E08091E0019091E101892B43
:101B000009F420E020931B026FEB71E082EE91E07C
:101B10000E94A81B892B09F06AC0C0902B01D090AD
:101B20002C01B0905F02E090E001F090E10191E0C3
:101B3000A3E0CA16D1040CF490E081E0B3E0EB1608
:101B4000F1040CF080E08923C1F0BB20B1F020E06B
:101B500030E040E85EE360915B0270915C0280914E
:101B60005D0290915E020E94B718609364027093C8
:101B70006502809366029093670281E0E3E0CE16EF
:101B8000D1040CF080E091E0F3E0EF16F1040CF4E6
:101B900090E08923C1F0BB20B1F020E030E040E8C4
:101BA00050E46091640270916502809166029091A8
:101BB00067020E94B71860935B0270935C02809387
:101BC0005D0290935E02F0922C01E0922B01109244
:101BD00060021092610210926202109263021092EF
:101BE0004702109248021092490210924A0263EC96
:101BF00071E082EE91E00E94A81B892BB9F440911C
:101C0000DC015091DD016091DE017091DF01809176
:101C1000E0019091E101892B09F441C340935B02FB
:101C200050935C0260935D0270935E0267EC71E01A
:101C300082EE91E00E94A81B892B89F48091E0013B
:101C40009091E1018330910509F46EC30CF030C32B
:101C50008130910509F446C3029709F454C36BEC33
:101C600071E082EE91E00E94A81B892B69F48091BB
:101C7000E0019091E1018130910509F4A2C30CF0DB
:101C800086C3892B09F49AC30E9488026B017C01E8
:101C900080918C0290918D0240918802509189022E
:101CA00060918A0270918B0246015701841A950A4D
:101CB000A60AB70A892B09F498C3A0918C02B091A7
:101CC0008D0227E833E943E050E00E94F1190E94B9
:101CD00058182B013C01C501B4010E9456189B0104
:101CE000AC01C301B2010E94661A60938402709332
:101CF0008502809386029093870210928D02109243
:101D00008C02C0928802D0928902E0928A02F092FC
:101D10008B022FB7F89480918F0290919002A0913E
:101D20009102B09192022FBF809380029093810222
:101D3000A0938202B0938302C0907C02D0907D0277
:101D4000E0907E02F0907F02BC01CD016C197D090C
:101D50008E099F090E9456186B017C0120E030E03B
:101D600048E951E40E940E1B18160CF0AAC5C09257
:101D70007802D0927902E0927A02F0927B0280910E
:101D80002202882309F461C320E030E040E250E4FD
:101D900060916C0270916D0280916E0290916F0261
:101DA0000E940E1B181664F480E090E0A0E2B0E4FC
:101DB00080936C0290936D02A0936E02B0936F02B9
:101DC00020E030E040E250EC60916C0270916D02D6
:101DD00080916E0290916F020E94511887FF0CC093
:101DE00080E090E0A0E2B0EC80936C0290936D02F2
:101DF000A0936E02B0936F0220E030E040E250E426
:101E000060917002709171028091720290917302E0
:101E10000E940E1B181664F480E090E0A0E2B0E48B
:101E20008093700290937102A0937202B093730238
:101E300020E030E040E250EC60917002709171025D
:101E400080917202909173020E94511887FF0CC01A
:101E500080E090E0A0E2B0EC809370029093710279
:101E6000A0937202B093730220E030E040E250E4AD
:101E70006091740270917502809176029091770260
:101E80000E940E1B181664F480E090E0A0E2B0E41B
:101E90008093740290937502A0937602B0937702B8
:101EA00020E030E040E250EC6091740270917502E5
:101EB00080917602909177020E94511887FF0CC0A2
:101EC00080E090E0A0E2B0EC809374029093750201
:101ED000A0937602B093770280901E0290901F022A
:101EE000A0902002B09021022EEB3AE647E150E4A8
:101EF00060917002709171028091720290917302F0
:101F00000E94B7182B013C012AE333E24AE55FE364
:101F1000C501B4010E94B7189B01AC01C301B20115
:101F20000E94FA192B013C0120E030E044E352E426
:101F30000E940E1B18160CF46AC24092370250928F
:101F400038026092390270923A0220E030E044E3B5
:101F500052EC609137027091380280913902909171
:101F60003A020E94511887FF0CC080E090E0A4E381
:101F7000B2EC8093370290933802A0933902B09369
:101F80003A0220E030E040EC50E4C501B4010E9488
:101F9000B718A70196010E94B71820E030E04AE781
:101FA00054E40E94661A20915702309158024091E1
:101FB000590250915A020E94FA196B017C0120E0EB
:101FC00030E044E353E40E940E1B18160CF42CC2BC
:101FD000C0925702D0925802E0925902F0925A02EF
:101FE000C0905702D0905802E0905902F0905A02E7
:101FF00020E030E044E353ECC701B6010E945118E1
:1020000087FF10C020E030E044EB53E4C701B60185
:102010000E94FA19609357027093580280935902F4
:1020200090935A028091370290913802A091390220
:10203000B0913A0280931E0290931F02A093200257
:10204000B093210260911C0270911D02072E000CBA
:10205000880B990B0E9458186B017C012AE038E22A
:1020600040EA5BE30E94B718609312027093130278
:10207000809314029093150210915F0211111DC0FC
:1020800080912B0190912C0103970CF017C62BE047
:102090003DE244EB5DE3C701B6010E94B71820E0C2
:1020A00030E044E352E40E94F919609364027093B3
:1020B00065028093660290936702809111028823E3
:1020C00009F484C029EF3FE049EC50E460911B0122
:1020D00070911C0180911D0190911E010E94B71802
:1020E0006B017C016091800270918102809182027B
:1020F000909183020E9456189B01AC01C701B60162
:102100000E94B71820E030E04AE754E40E94661AC3
:102110000E94131B20911701309118014091190161
:1021200050911A010E94B71820E030E040E250E4DC
:102130000E94FA19609312027093130280931402A2
:102140009093150220E030EC4FE754E40E94B7185A
:1021500020E030E040EA50E40E94661A0E94D81A5B
:1021600070931D0260931C02072E000C880B990BC4
:102170000E9458186B017C012BE03DE244EB5DE3CB
:102180000E94B71820E030E044E352E40E94F919BD
:102190006093640270936502809366029093670275
:1021A0002BE03DE244EB5EE3C701B6010E94B718A5
:1021B00020E030E044E353E40E94F91960935B02AD
:1021C00070935C0280935D0290935E0282E00E94B5
:1021D0000102A1E0A983892B09F41982B981B09386
:1021E000100283E00E94010221E030E0892B11F40B
:1021F00030E020E0220F331FE9812E0F311D309394
:102200000F0220930E0280E090E3A1E3B3E48093F9
:10221000170290931802A0931902B0931A02A0918A
:102220002B01B0912C01BA87A98780914F02909120
:102230005002A0915102B091520289839A83AB83DC
:10224000BC8380912F0290913002A0913102B09115
:1022500032028D839E83AF83B887A985BA85119793
:1022600009F04DC120E030E040EA50E460916402A2
:102270007091650280916602909167020E94B71882
:1022800020E030E044EB52E40E94661A60936C0256
:1022900070936D0280936E0290936F0203C240931D
:1022A0006402509365026093660270936702BECC2D
:1022B0008530910509F45AC00CF447C0069709F01F
:1022C000CECC8091DC019091DD01A091DE01B09136
:1022D000DF0180933B0290933C02A0933D02B093B8
:1022E0003E02BDCC8091DC019091DD01A091DE0128
:1022F000B091DF0180931F0190932001A0932101F1
:10230000B0932201ACCC8091DC019091DD01A091D1
:10231000DE01B091DF018093230190932401A0930B
:102320002501B09326019BCC8091DC019091DD01C9
:10233000A091DE01B091DF018093230290932402EB
:10234000A0932502B09326028ACC8091DC01909163
:10235000DD01A091DE01B091DF0180932701909310
:102360002801A0932901B0932A0179CC8091DC0146
:102370009091DD01A091DE01B091DF0180934302D5
:1023800090934402A0934502B093460268CC8230F9
:102390009105D1F0039709F077CC8091DC01909101
:1023A000DD01A091DE01B091DF01809317019093D0
:1023B0001801A0931901B0931A0166CC1092110272
:1023C00063CC0093110260CC8091DC019091DD011F
:1023D000A091DE01B091DF0180931B0190931C015D
:1023E000A0931D01B0931E014FCC21E9821620ED70
:1023F000920623E0A206B10408F48BCC109284026A
:102400001092850210928602109287027ACC80E0A8
:1024100090E0A4E3B2E48093370290933802A09353
:102420003902B0933A0291CD20E030E044EB53E41E
:10243000C701B6010E94F9196093570270935802C0
:102440008093590290935A02CBCD82E10E9466029A
:1024500090931D0280931C0285E10E946602BC01DC
:10246000990F880B990B0E9458182BE03DE244EB22
:102470005EE30E94B71820E030E044E353E40E949A
:10248000F919609357027093580280935902909300
:102490005A0280911B02882381F08091170290914B
:1024A0001802A0911902B0911A02809357029093DA
:1024B0005802A0935902B0935A0285E394E9A1EF20
:1024C000B2EC8093370290933802A0933902B09314
:1024D0003A0280911602882309F4B4CD80918402D7
:1024E00090918502A0918602B09187028093370275
:1024F00090933802A0933902B0933A02A3CDE985B4
:10250000FA8533970CF427C2209157023091580274
:102510004091590250915A0260915B0270915C02A5
:1025200080915D0290915E020E94F9196B017C011D
:102530001111D0C1C0924B02D0924C02E0924D02D8
:10254000F0924E02C0907802D0907902E0907A0228
:10255000F0907B0280912D0190912E0101978E3F8A
:10256000910510F5A701960169817A818B819C8183
:102570000E94B71820E030E04AE754E40E94661A4F
:102580009B01AC0160914702709148028091490221
:1025900090914A020E94FA19609347027093480290
:1025A0008093490290934A02409043025090440223
:1025B000609045027090460220E030E0A901C3011E
:1025C000B2010E945118811108C010924702109266
:1025D00048021092490210924A0280904B02909059
:1025E0004C02A0904D02B0904E0229813A814B815D
:1025F0005C81C501B4010E94F91920E030E04AE78E
:1026000054E40E94B718A70196010E94661A6B0154
:102610007C01C0923F02D0924002E0924102F092CF
:102620004202209147023091480240914902509164
:102630004A02C301B2010E94B718A50194010E9489
:10264000FA194B015C0120913B0230913C02409110
:102650003D0250913E02C701B6010E94B7189B018E
:10266000AC01C501B4010E94FA19209127013091F3
:1026700028014091290150912A010E94B71829850B
:102680003A852330310509F401CE609364027093DA
:1026900065028093660290936702A985BA851497B4
:1026A00009F45EC18D819E81AF81B885809333022C
:1026B00090933402A0933502B093360280912B029E
:1026C00090912C02A0912D02B0912E0280932F02A6
:1026D00090933002A0933102B093320289819A81A3
:1026E000AB81BC818093530290935402A093550216
:1026F000B093560280914B0290914C02A0914D02F2
:10270000B0914E0280934F0290935002A0935102D9
:10271000B093520260916C0270916D0280916E02D2
:1027200090916F02609370027093710280937202B5
:102730009093730260937402709375028093760293
:102740009093770220E030E04FE753E40E94B718FF
:1027500020E030E040EA50E40E94661A6B017C0100
:1027600020E030E04FEF52E40E940E1B18160CF4EC
:10277000A9C1C0926802D0926902E0926A02F09206
:102780006B0220E030E04FEF52EC609168027091F4
:10279000690280916A0290916B020E94511887FF32
:1027A0000CC080E090E0AFEFB2EC809368029093B1
:1027B0006902A0936A02B0936B02C0906802D09045
:1027C0006902E0906A02F0906B0280912F0120E094
:1027D00030E0A901882309F4A0C1C701B6010E9415
:1027E0000E1B18160CF07BC120E030E047ED52E4E0
:1027F000C701B6010E94B71820E030E04FEF52E465
:102800000E94661A20E030E040EA51E40E94FA1982
:1028100020E030E04FEF52E40E94FA190E94D81AEB
:1028200070932E0160932D01A985BA85139754F5F5
:10283000C0906402D0906502E0906602F09067025A
:1028400020E030E040E050E4C701B6010E9451189A
:1028500087FF18C020E030E040E050ECC701B6012F
:102860000E940E1B181674F4EFE7F0E0F0932E01AF
:10287000E0932D01109260021092610210926202A8
:1028800010926302E0902D01F0902E0161E086E04D
:102890000E942A02E114F10409F080C180E00E9444
:1028A000D6018091800290918102A0918202B09124
:1028B000830280937C0290937D02A0937E02B0936A
:1028C0007F022114310411F40C94330B0E94000098
:1028D0000C942E0B20E030E044E353E40E945118A6
:1028E00087FF0BC020E030E044E353ECC701B601A2
:1028F0000E940E1B18160CF41DCE20E030E044E3BD
:1029000053E4C701B6010E940E1B18168CF420E098
:1029100030E044EB53E4C701B6010E94F91960931B
:102920004B0270934C0280934D0290934E020ACE5C
:1029300020E030E044E353ECC701B6010E94511897
:1029400087FF00CE20E030E044EB53E4C701B6013E
:102950000E94FA19E4CF89859A85029709F09DCEE5
:1029600020913702309138024091390250913A0259
:102970006091640270916502809166029091670295
:102980000E94F9196B017C01C0922B02D0922C029B
:10299000E0922D02F0922E028090780290907902BF
:1029A000A0907A02B0907B0280912D0190912E012F
:1029B00001978E3F910510F52D813E814F815885FD
:1029C000C501B4010E94B71820E030E04AE754E4A2
:1029D0000E94661A9B01AC016091600270916102D5
:1029E00080916202909163020E94FA1960936002E2
:1029F000709361028093620290936302409023017E
:102A000050902401609025017090260120E030E074
:102A1000A901C301B2010E945118811108C010928E
:102A200060021092610210926202109263022D8184
:102A30003E814F815885C701B6010E94F91920E0F7
:102A400030E04AE754E40E94B718A50194010E94BF
:102A5000661A4B015C018092270290922802A09294
:102A60002902B0922A0220916002309161024091C5
:102A7000620250916302C301B2010E94B718A7011C
:102A800096010E94FA196B017C012091230230917A
:102A900024024091250250912602C501B4010E94F2
:102AA000B7189B01AC01C701B6010E94FA19209129
:102AB0001F013091200140912101509122010E947B
:102AC000B718E4CB80E090E0AFEFB2E48093680207
:102AD00090936902A0936A02B0936B0252CE20E0F9
:102AE00030E0A901C701B6010E94511887FF9CCEB2
:102AF00020E030E047ED52E4C701B6010E94B7186C
:102B000020E030E04FEF52E40E94661A20E030E00F
:102B100040EA51E40E94F9197BCEC701B6010E9438
:102B20000E1B1816ECF420E030E041EE52E4C70131
:102B3000B6010E94B71820E030E04FEF52E40E9447
:102B4000661A20E030E040E751E40E94FA199B0148
:102B5000AC0160E070E08FEF92E40E94F9195ECE64
:102B600020E030E0A901C701B6010E94511887FF9B
:102B70005BCE20E030E041EE52E4C701B6010E9496
:102B8000B71820E030E04FEF52E40E94661A20E0D0
:102B900030E040E751E40E94F919D9CFFFEFEF167A
:102BA000F10411F481E07BCEE1EFF1E08491EFEFED
:102BB000E80FEF3008F07CC0F0E0EF51FA4E0C94D3
:102BC000EB19F015F515FA1504160E1658165816C9
:102BD0005816181622162C163616431658164B166B
:102BE00084B5806884BDE7BC5CCE84B5806284BD5A
:102BF000E8BC57CE80918000806880938000F0927E
:102C00008900E09288004DCE8091800080628093A0
:102C10008000F0928B00E0928A0043CE8091800089
:102C2000886080938000F0928D00E0928C0039CE15
:102C300080919000806880939000F0929900E092DB
:102C400098002FCE80919000806280939000F09247
:102C50009B00E0929A0025CE80919000886080933E
:102C60009000F0929D00E0929C001BCE8091C000ED
:102C700080688093C0008091C0008F7B8093C000EB
:102C8000E092CF000ECE8091C00080628093C000A1
:102C9000E092D00006CE8091C20088608093C2008E
:102CA0008091C2008B7F8093C200E092D200F9CD68
:102CB000F0E8EF16F1040CF075CFF0CD2BE03DE21B
:102CC00044EB5EE3C701B6010E94B71820E030E094
:102CD00044E353E40E94F91960935B0270935C0231
:102CE00080935D0290935E02E8C9E5EAF2E0138208
:102CF000128288EE93E0A0E0B0E084839583A683FF
:102D0000B78384E391E0918380838FEF9FEF958772
:102D100084870895662777270C94E016FC0188279E
:102D20009927E89421912032E9F3293010F02E30D0
:102D3000C8F32B3241F02D3239F4689404C00E945C
:102D4000D816820F911D219120532A30C0F31EF412
:102D5000909581959F4F089545EF52E00E94B116DE
:102D60000895FA01A191B081009719F41097E1F04C
:102D7000CD01DC01CD010D90002011F4C00113C084
:102D8000FB012191222319F02015D9F7F3CFFB0184
:102D90002191201519F41E92119606C02223C1F725
:102DA0000D900020A1F7D001FA01A193B0830895FE
:102DB0007AE0979F902D879F802D910D1124089583
:102DC000B0E0A0E0E6EEF6E10C9489195C017B012D
:102DD0006115710519F0DB018D939C9385010F5FDF
:102DE0001F4FF501D0818D2F90E00E9430186C01AB
:102DF000892BB9F5DD32B9F50F5F1F4FD50111965B
:102E0000DC91C1E05801F1E0AF1AB10843E050E0B5
:102E100062ED70E0C5010E943918892B69F56801DF
:102E200082E0C80ED11C45E050E06DEC70E0C601B8
:102E30000E943918892B21F4680197E0C90ED11C32
:102E4000E114F10419F0D701CD92DC9260E070E05A
:102E500080E89FEFC111FFC060E070E080E89FE76D
:102E6000FAC05801BBCFDB3229F485010E5F1F4F3A
:102E7000F501D181C0E0C6CF43E050E06AEC70E0DC
:102E8000C5010E943918892BE9F0F80110E000E033
:102E900020E030E0A9015F01B0ED8B2E8D0E89E0BE
:102EA0008815C8F19C2E689491F88C2F8870C2FF09
:102EB00016C0811102C00F5F1F4F3196D501DC9102
:102EC000C92DE9CFE114F10429F00E5F1F4FF7017E
:102ED0001183008360E070E080EC9FE7BCC0882332
:102EE00011F001501109A5E0B0E00E9478199B0192
:102EF000AC01220F331F441F551F280D311D411DEA
:102F0000511D283999E93907490799E15907A8F26C
:102F1000C6609C2ED2CFAEEF8A1206C0C3FD3CC065
:102F20009C2E689493F8C9CFDF7DD534A9F58081B4
:102F30008D3239F4C061DF011296818162E070E068
:102F400006C0DF018B32C1F3119661E070E080535F
:102F50005D01A61AB70A8A30F8F4E0E8CE16ECE074
:102F6000DE065CF4B601660F771F660F771FC60E8C
:102F7000D71ECC0CDD1CC80ED11C5D01FFEFAF1AB3
:102F8000BF0A8C9180538A30A8F1C4FF03C0D1944A
:102F9000C194D1080C0D1D1DC1FF09C0E114F1043D
:102FA00031F081E0A81AB108D701AD92BC92CA01F4
:102FB000B9010E945618C370C33009F490584B01F0
:102FC0005C0120E030E0A9010E945118882309F437
:102FD00040C0C1E0D1E017FF05C01195019511096E
:102FE000C9EED0E06E01B8E1CB1AD10880E2E82E3C
:102FF000F12C0FC0D501B1CFFE012591359145913E
:1030000054910E191F09C501B4010E94B7184B0154
:103010005C01D501C4010E151F0574F72497F594C2
:10302000E794CC16DD06A9F78A2F880F8B2F881F0F
:103030008F3F49F020E030E0A901C501B4010E94B2
:103040005118811106C082E290E09093F8028093BB
:10305000F702C501B401CDB7DEB7ECE00C94A519B9
:1030600091110C942419803219F089508550C8F7B9
:103070000895FB01DC014150504088F08D9181346E
:103080001CF08B350CF4805E659161341CF06B355F
:103090000CF4605E861B611171F3990B0895881B17
:1030A000FCCF0E94931808F481E00895E89409C0C9
:1030B00097FB3EF490958095709561957F4F8F4F6B
:1030C0009F4F9923A9F0F92F96E9BB279395F69581
:1030D000879577956795B795F111F8CFFAF4BB0FFF
:1030E00011F460FF1BC06F5F7F4F8F4F9F4F16C063
:1030F000882311F096E911C0772321F09EE8872FED
:10310000762F05C0662371F096E8862F70E060E0A8
:103110002AF09A95660F771F881FDAF7880F969521
:10312000879597F90895990F0008550FAA0BE0E8C5
:10313000FEEF16161706E807F907C0F01216130679
:10314000E407F50798F0621B730B840B950B39F4B9
:103150000A2661F0232B242B252B21F408950A261F
:1031600009F4A140A6958FEF811D811D08950E944D
:10317000CA180C943E190E94301938F00E94371971
:1031800020F0952311F00C9427190C942D1911247B
:103190000C9472190E944F1970F3959FC1F3950F0B
:1031A00050E0551F629FF001729FBB27F00DB11DCB
:1031B000639FAA27F00DB11DAA1F649F6627B00D5B
:1031C000A11D661F829F2227B00DA11D621F739F44
:1031D000B00DA11D621F839FA00D611D221F749F52
:1031E0003327A00D611D231F849F600D211D822F99
:1031F000762F6A2F11249F5750409AF0F1F08823C0
:103200004AF0EE0FFF1FBB1F661F771F881F9150EC
:103210005040A9F79E3F510580F00C9427190C945B
:1032200072195F3FE4F3983ED4F3869577956795DE
:10323000B795F795E7959F5FC1F7FE2B880F911D16
:103240009695879597F9089599278827089597F96E
:103250009F6780E870E060E008959FEF80EC08953C
:1032600000240A9416161706180609060895002465
:103270000A9412161306140605060895092E0394DF
:10328000000C11F4882352F0BB0F40F4BF2B11F453
:1032900060FF04C06F5F7F4F8F4F9F4F089557FDB2
:1032A0009058440F551F59F05F3F71F04795880FB4
:1032B00097FB991F61F09F3F79F08795089512164B
:1032C00013061406551FF2CF4695F1DF08C01616F7
:1032D00017061806991FF1CF8695710561050894A8
:1032E0000895E894BB2766277727CB0197F90895BF
:1032F0000E94BA19A59F900DB49F900DA49F800DB8
:10330000911D112408952F923F924F925F926F92D8
:103310007F928F929F92AF92BF92CF92DF92EF9265
:10332000FF920F931F93CF93DF93CDB7DEB7CA1BE6
:10333000DB0B0FB6F894DEBF0FBECDBF09942A8811
:10334000398848885F846E847D848C849B84AA84B9
:10335000B984C884DF80EE80FD800C811B81AA8146
:10336000B981CE0FD11D0FB6F894DEBF0FBECDBF11
:10337000ED010895A29FB001B39FC001A39F700DFE
:10338000811D1124911DB29F700D811D1124911D6D
:103390000895A1E21A2EAA1BBB1BFD010DC0AA1F96
:1033A000BB1FEE1FFF1FA217B307E407F50720F0AE
:1033B000A21BB30BE40BF50B661F771F881F991F29
:1033C0001A9469F760957095809590959B01AC0172
:1033D000BD01CF010895EE0FFF1F0590F491E02D80
:1033E0000994B7FF0C9478190E947819821B930BEB
:1033F00008955058BB27AA270E94111A0C943E1911
:103400000E94301938F00E94371920F039F49F3F9C
:1034100019F426F40C942D190EF4E095E7FB0C94A6
:103420002719E92F0E944F1958F3BA17620773073B
:103430008407950720F079F4A6F50C9471190EF421
:10344000E0950B2EBA2FA02D0B01B90190010C01B4
:10345000CA01A0011124FF27591B99F0593F50F4CC
:10346000503E68F11A16F040A22F232F342F442724
:10347000585FF3CF469537952795A795F04053951C
:10348000C9F77EF41F16BA0B620B730B840BBAF0EC
:103490009150A1F0FF0FBB1F661F771F881FC2F757
:1034A0000EC0BA0F621F731F841F48F4879577956B
:1034B0006795B795F7959E3F08F0B0CF9395880F25
:1034C00008F09927EE0F9795879508950E947A1A2C
:1034D0000C943E190E94371958F00E94301940F0A0
:1034E00029F45F3F29F00C94271951110C9472199B
:1034F0000C942D190E944F1968F39923B1F35523A9
:1035000091F3951B550BBB27AA27621773078407F6
:1035100038F09F5F5F4F220F331F441FAA1FA9F38C
:1035200035D00E2E3AF0E0E832D091505040E6957A
:10353000001CCAF72BD0FE2F29D0660F771F881FDB
:10354000BB1F261737074807AB07B0E809F0BB0BCE
:10355000802DBF01FF2793585F4F3AF09E3F5105E2
:1035600078F00C9427190C9472195F3FE4F3983E9D
:10357000D4F3869577956795B795F7959F5FC9F7CB
:10358000880F911D9695879597F90895E1E0660F4C
:10359000771F881FBB1F621773078407BA0720F0C5
:1035A000621B730B840BBA0BEE1F88F7E09508952E
:1035B0000E94DF1A6894B1110C94721908950E9448
:1035C000571988F09F5798F0B92F9927B751B0F045
:1035D000E1F0660F771F881F991F1AF0BA95C9F797
:1035E00014C0B13091F00E947119B1E008950C94AB
:1035F0007119672F782F8827B85F39F0B93FCCF35E
:10360000869577956795B395D9F73EF49095809513
:10361000709561957F4F8F4F9F4F08950E9493182B
:1036200008F48FEF08959F930E94221B0F9007FCD0
:10363000EE5F0C944B1B0E949318880B990B089516
:103640000C942D190E945719D8F3E894E0E0BB2799
:103650009F57F0F02AED3FE049EC06C0EE0FBB0F9C
:10366000661F771F881F28F0B23A62077307840726
:1036700028F0B25A620B730B840BE3959A9572F79C
:10368000803830F49A95BB0F661F771F881FD2F7DA
:1036900090480C94611BEF93E0FF07C0A2EA2AED6B
:1036A0003FE049EC5FEB0E94111A0E943E190F9017
:1036B000039401FC9058ECEAF0E00C946D1B9F3FE2
:1036C00031F0915020F4879577956795B795880FDD
:1036D000911D9695879597F908959F938F937F9362
:1036E0006F93FF93EF939B01AC010E94B718EF918A
:1036F000FF910E94811B2F913F914F915F910C94FC
:10370000B718DF93CF931F930F93FF92EF92DF923F
:103710007B018C01689406C0DA2EEF010E94CA1862
:10372000FE01E894A5912591359145915591A6F317
:10373000EF010E94111AFE019701A801DA9469F7BE
:10374000DF90EF90FF900F911F91CF91DF9108953F
:10375000FB01DC018D91019080190110D9F3990BC7
:103760000895FB01DC0101900D920020E1F708951E
:04377000F894FFCFFB
:10377400FFFFFFFF00E1000000000000130313033C
:103784001303130313031F0000803F0000803FCD89
:10379400CCCC3D000080400000003F04007F0001CD
:1037A400000000005A04D9037004C502B60474046E
:1037B400920400C180810000006E616E00696E6633
:1037C400006F7666002C0064617400657374004DAC
:1037D4006F646F5F436F6E74726F6C3D002C506F3B
:1037E40074656E63696F6D6574726F5F50433D00FD
:1037F4002C6D6F64656C6F3D002C73696D756C6125
:1038040063696F6E3D002C656E636F6465723D0085
:103814002C677261793D00727374006D6F6400737C
:10382400696D0070706300666276006662700063A2
:103834006F6E00726566007069640073696E0000E3
:00000001FF
