:100000000C94DA000C941A060C94F3050C94CC05AD
:100010000C94A5050C9402010C9402010C947E052D
:100020000C9402010C9402010C9441060C94B0064D
:100030000C9402010C9402010C9402010C94020134
:100040000C9402010C9402010C9402010C94020124
:100050000C9402010C9402010C9402010C943405DE
:100060000C9402010C9402010C9402010C94020104
:100070000C9402010C9402010C9402010C940201F4
:100080000C9402010C9402010C9402010C940201E4
:100090000C9402010C9402010C9402010C940201D4
:1000A0000C9402010C9402010C940201080B000252
:1000B0000202000009040000010202000005240001
:1000C0001001052401010104240206052406000193
:1000D0000705810310004009040100020A00000026
:1000E00007050202400000070583024000000403E8
:1000F000090412010002EF02014041233780000190
:100100000102030141726475696E6F204C4C43001B
:1001100041726475696E6F204D6963726F000706E6
:1001200005040100080A0B0C0D0900000000240062
:1001300027002A002D0030000000000023002600C8
:1001400029002C002F0000000000250028002B00B3
:100150002E00310004040404040304050202020218
:100160000403020202020606060606060404020250
:100170000204040408020110408040102040804026
:1001800080080204018040201002011080102040ED
:1001900040200000000200090F0000030401000CD1
:1001A000000000000000000000000000000000004F
:1001B0000000030B11241FBECFEFDAE0DEBFCDBF7E
:1001C00011E0A0E0B1E0E4E1F7E102C005900D929A
:1001D000AC36B107D9F721E0ACE6B1E001C01D9221
:1001E000AB3EB207E1F710E0CAEDD0E004C02197C2
:1001F000FE010E947B0BC93DD107C9F70E94E208AE
:100200000C94880B0C940000FC0180919A018823C7
:1002100011F13FB7F89482E08093E9002091F20059
:10022000822F90E01816190614F481E090E08823DC
:1002300039F0289A44E6409399014091F1004083B7
:10024000222339F02091F200211103C02BE62093E4
:10025000E8003FBF08958FEF9FEF08952FB7F89400
:1002600083E08093E9009091E800892F807295FFE8
:1002700004C09091F20080E4891B2FBF0895809103
:10028000910181110DC082E080938D0184E0809303
:100290008E011092900110928F0181E08093910164
:1002A0008DE891E0089581508F3008F047C0E82F25
:1002B000F0E0E35AFE4F0C947B0B7A017E016C0157
:1002C000720176019E019E019E01810187018B01D1
:1002D0008F0195019E019901809180008F77809315
:1002E00080000895809180008F7DF9CF80918000FB
:1002F000877FF5CF84B58F7784BD089584B58F7DD2
:10030000FBCF809190008F7780939000089580912B
:1003100090008F7DF9CF80919000877FF5CF8091FD
:10032000C0008F778093C00008958091C0008F7DBA
:10033000F9CF8091C200877F8093C20008951F93F8
:10034000CF93DF93E8E9F1E09491E9E7F1E0D4910C
:10035000EAE5F1E0C491CC23B9F0182F992319F004
:10036000892F0E945301EC2FF0E0EE0FFF1FEA5B94
:10037000FE4FA591B4918FB7F894EC91111108C07C
:10038000D095DE23DC938FBFDF91CF911F9108952D
:10039000DE2BF8CFCF93DF93282F30E0F901EE5614
:1003A000FE4F8491F901ED58FE4FD491F901EC5ABA
:1003B000FE4FC491CC23A1F081110E945301EC2F78
:1003C000F0E0EE0FFF1FE85CFE4FA591B491EC91B9
:1003D000ED2381E090E009F480E0DF91CF91089572
:1003E00080E090E0FACFCF93DF9390E0FC01ED58EE
:1003F000FE4F24918C5A9E4FFC0184918823C9F0B2
:1004000090E0880F991FFC01E65DFE4FA591B49125
:10041000FC01EA5BFE4FC591D49161110DC09FB7FD
:10042000F8948C91209582238C93888128232883AB
:100430009FBFDF91CF910895623051F49FB7F89438
:100440003C91822F809583238C93E8812E2BEFCFD4
:100450008FB7F894EC912E2B2C938FBFEACF82515B
:10046000E82FF0E0E25EFE4FE49190917B008E2F4A
:10047000880F880F80729F7D892B80937B00E770A7
:10048000E064E0937C0080917A00806480937A003D
:1004900080917A0086FDFCCF809178009091790060
:1004A00008953FB7F8948091890190918A01A091B5
:1004B0008B01B0918C0126B5A89B05C02F3F19F088
:1004C0000196A11DB11D3FBFBA2FA92F982F8827D4
:1004D000BC01CD01620F711D811D911D42E0660FAF
:1004E000771F881F991F4A95D1F70895CF92DF9201
:1004F000EF92FF920E9451026B017C010E94510217
:100500006C197D098E099F09683E7340810591052C
:10051000A8F3FF90EF90DF90CF90089582E00E94C3
:10052000CA0121E0892B09F420E020937601809113
:1005300074019091760121E08227891310C03091D7
:1005400077012091760180917E0190917F01329F09
:10055000800D911D112490937F0180937E018091E5
:10056000760180937401089583E00E94CA0121E01E
:10057000892B09F420E020937701809175019091F7
:10058000770121E08227891310C080917E0190912C
:100590007F013091770120917601329F8019910976
:1005A000112490937F0180937E0180917701809345
:1005B00075010895089540916E0150916F01209149
:1005C0006C0130916D0142175307B4F49091E8002B
:1005D0009570E1F39091E80092FD19C08093F100CD
:1005E00080916E0190916F0101968F739927892BED
:1005F00019F48EEF8093E80080916E0190916F0165
:10060000019690936F0180936E0181E0089580E0E0
:100610000895EF92FF920F931F93CF93DF93F82EDD
:10062000192FE62E042F81E0860F880F0E94DB022F
:1006300083E00E94DB02CF2DD12FEC0EFD2EF11CAA
:10064000CE15DF05B9F007FF13C0FE0184910E94AB
:10065000DB02182F80E00E94DB02812321968111AA
:10066000EFCFDF91CF911F910F91FF90EF90089501
:100670008881EDCF81E0F5CFDF92EF92FF920F936B
:100680001F93CF93DF93D82E8A01EB017B01E40EF9
:10069000F51ECE15DF0559F0D7FE12C0FE0184917C
:1006A0000E94DB0221968111F4CF0FEF1FEFC801EA
:1006B000DF91CF911F910F91FF90EF90DF90089500
:1006C0008881EECF0F931F93CF93DF931F92CDB707
:1006D000DEB782E0898342E450E06CEA70E080E8B3
:1006E0000E943C030E943F01DC0112960D911C9177
:1006F0000115110589F0D801ED91FC910280F3817B
:10070000E02DBE016F5F7F4FC801099597FD04C0C2
:10071000F80100851185ECCF89810F90DF91CF9191
:100720001F910F910895615030F02091F100FC016C
:1007300020830196F8CF289A84E680939901089542
:100740008F929F92AF92BF92CF92DF92EF92FF92E1
:100750000F931F93CF93DF936C017B018A018091EC
:100760000B01882309F458C080919A01882309F469
:1007700053C08091720180FF05C08091E0008260CB
:100780008093E000E801B12C8AEFA82E93E0892E37
:100790002AE3922E209711F4BB20B9F10E942E017A
:1007A000811106C0AA94AA20B9F10E947602F2CF64
:1007B0008C171D0611F00CF08C2F9FB7F8948092C7
:1007C000E9002091E80025FD02C09FBFE3CF282F5C
:1007D00030E0C21BD30BF701815020F041914093D0
:1007E000F100FACFE20EF31EBB2021F09092E80058
:1007F000B12CEBCF8091E80085FDE7CF9092E80027
:10080000BB24B394209709F3F3CF5D9A84E68093D9
:100810007101101611063CF081E090E0F60193831F
:10082000828310E000E0C801DF91CF911F910F910A
:10083000FF90EF90DF90CF90BF90AF909F908F9000
:100840000895CF93DF931F92CDB7DEB76983DC01A4
:10085000ED91FC910280F381E02D41E050E0BE017A
:100860006F5F7F4F09950F90DF91CF91089583E0DF
:100870008093E9008091F200882319F08AE3809345
:10088000E80008950E942E0190E00895CF93DF9331
:100890001F92CDB7DEB7FC018485958597FD08C012
:1008A0002FEF3FEF358724870F90DF91CF91089589
:1008B000CE0101960E940401019719F4898190E00C
:1008C000F3CF8FEF9FEFF0CF0F931F93CF93DF9373
:1008D0001F92CDB7DEB78C01FC018485958597FF0B
:1008E0000BC0CE0101960E940401019771F4898129
:1008F00090E0F80195878487F801848595850F90AD
:10090000DF91CF911F910F9108958FEF9FEFF1CF5E
:10091000FC018485958597FD0BC09FB7F89482E014
:100920008093E9008091F2009FBF90E001960895C6
:100930009FB7F89482E08093E9008091F2009FBF16
:1009400090E00895FC0101900020E9F73197AF0194
:10095000481B590BBC018BE991E00C94A0038F92CA
:100960009F92AF92BF92CF92DF92EF92FF920F933E
:100970001F93CF93DF93CDB7DEB7A1970FB6F8944F
:10098000DEBF0FBECDBF6C01990FEE08FF08F7FE6A
:1009900047C06DE28BE991E00E9421048C0122277F
:1009A0003327A9012C193D094E095F0919A2CE016F
:1009B00081967C019AE0892E912CA12CB12CCA0140
:1009C000B901A50194010E944A0B605DF701629391
:1009D0007F01211531054105510589F790E080E03F
:1009E000309719F0CF010E94A204080F191F8FE25F
:1009F00091E00E94A204800F911FA1960FB6F89477
:100A0000DEBF0FBECDBFDF91CF911F910F91FF9041
:100A1000EF90DF90CF90BF90AF909F908F90089510
:100A2000A701960119A28E010F5D1F4F8AE0C82E03
:100A3000D12CE12CF12CCA01B901A70196010E9429
:100A40004A0B605DF80162938F0121153105410564
:100A5000510589F7309729F0CF010E94A2048C013B
:100A6000C6CF10E000E0C3CF1F920F920FB60F92D7
:100A700011242F933F938F939F93AF93BF938091B4
:100A8000850190918601A0918701B09188013091F4
:100A9000840123E0230F2D3758F50196A11DB11DC8
:100AA000209384018093850190938601A093870110
:100AB000B09388018091890190918A01A0918B0166
:100AC000B0918C010196A11DB11D80938901909375
:100AD0008A01A0938B01B0938C01BF91AF919F913C
:100AE0008F913F912F910F900FBE0F901F901895EF
:100AF00026E8230F0296A11DB11DD2CF1F920F929F
:100B00000FB60F9211242F933F934F935F936F93E0
:100B10007F938F939F93AF93BF93EF93FF93E09156
:100B20001401F09115010995FF91EF91BF91AF91DB
:100B30009F918F917F916F915F914F913F912F91F5
:100B40000F900FBE0F901F9018951F920F920FB627
:100B50000F9211242F933F934F935F936F937F9343
:100B60008F939F93AF93BF93EF93FF93E091120105
:100B7000F09113010995FF91EF91BF91AF919F9172
:100B80008F917F916F915F914F913F912F910F9036
:100B90000FBE0F901F9018951F920F920FB60F92D5
:100BA00011242F933F934F935F936F937F938F9372
:100BB0009F93AF93BF93EF93FF93E0911001F09158
:100BC00011010995FF91EF91BF91AF919F918F9185
:100BD0007F916F915F914F913F912F910F900FBE39
:100BE0000F901F9018951F920F920FB60F9211241D
:100BF0002F933F934F935F936F937F938F939F9325
:100C0000AF93BF93EF93FF93E0910E01F0910F012B
:100C10000995FF91EF91BF91AF919F918F917F9136
:100C20006F915F914F913F912F910F900FBE0F9059
:100C30001F9018951F920F920FB60F9211242F93A9
:100C40003F934F935F936F937F938F939F93AF9354
:100C5000BF93EF93FF93E0910C01F0910D01099583
:100C6000FF91EF91BF91AF919F918F917F916F9184
:100C70005F914F913F912F910F900FBE0F901F905A
:100C800018951F920F920FB60F9211248F939F9376
:100C90008091E1009091E100937F9093E10083FFC8
:100CA0000FC01092E90091E09093EB001092EC00DD
:100CB00092E39093ED0010929A0198E09093F000E7
:100CC00082FF22C093E09093E9009091F200992373
:100CD00019F09AE39093E80090917101992341F003
:100CE00090917101915090937101911101C05D98A3
:100CF00090919901992341F090919901915090938D
:100D00009901911101C0289884FF18C08091E200D8
:100D10008E7E81608093E2008091E1008F7E8093DF
:100D2000E100809172018E7E8061809372019F91BB
:100D30008F910F900FBE0F901F90189580FFF7CFE7
:100D40008091E2008E7E80618093E2008091E100DC
:100D50008E7E8093E100809172018E7E8160E5CF6E
:100D60001F920F920FB60F921124CF92DF92EF9243
:100D7000FF920F931F932F933F934F935F936F9324
:100D80007F938F939F93AF93BF93EF93FF93CF93F3
:100D9000DF93CDB7DEB76C97DEBFCDBF1092E90011
:100DA0008091E80083FF25C068E0CE0145960E944F
:100DB000930382EF8093E8008D8987FF39C090917B
:100DC000E80090FFFCCF982F907609F034C19E89FF
:100DD0004F89588D2F89F88C911131C0803861F579
:100DE000809173018093F1001092F1008EEF809357
:100DF000E8006C960FB6F894DEBF0FBECDBFDF9152
:100E0000CF91FF91EF91BF91AF919F918F917F9182
:100E10006F915F914F913F912F911F910F91FF9093
:100E2000EF90DF90CF900F900FBE0F901F9018950E
:100E30009EEF9093E800C7CF1092F100D5CF91308C
:100E400059F48111D3CF4130510581F6809173015E
:100E50008D7F80937301CACF933049F48111C6CF3F
:100E60004130510519F6809173018260F2CF9530BF
:100E700041F48091E80080FFFCCF20682093E300DC
:100E8000B5CF963009F0A9C00B8D1C8D22E01092D1
:100E9000E90010926F0110926E01F2122EC01092B2
:100EA0006D0110926C010E9462031F8299E0998388
:100EB000FA8291E09E8390EA98879AEF9987209131
:100EC0006E0130916F01275F3F4F3C832B838D83F1
:100ED0001092E90010926F0110926E0110936D0153
:100EE00000936C0149E050E0BE016F5F7F4F80E0EE
:100EF0000E943C030E94620379CF10936D0100931E
:100F00006C010E943F01DC0112960D911C910115AC
:100F1000110509F451C1D801ED91FC910480F581CE
:100F2000E02DBE016B5E7F4FC8010995009709F067
:100F30003EC1F80100851185EACFF3E0FF120EC033
:100F40008F89882309F440C0823061F440E86DE065
:100F500080E191E00E940903811148CF81E28093F2
:100F6000EB0047CF813029F440E86BE084E091E06A
:100F7000F1CF833099F70E943F01DC011296ED908A
:100F8000FC908E010F5F1F4F6801E114F10479F0AE
:100F9000D701ED91FC910680F781E02DB801C701E2
:100FA0000995080F111DF701E084F184EECFD801F7
:100FB0001C92F60101900020E9F73197BF016C19EE
:100FC0007D0940E0C601C6CF6EEE70E0FB014491A2
:100FD00050E080E80E943C0309CF973009F4BECF6F
:100FE000983021F481E08093F10000CF993009F02E
:100FF000FDCE837009F0B2CFE9E2F1E081E031E0AB
:1010000096E32191222371F08093E9003093EB0065
:10101000DF0111972C912093EC009093ED008F5FEE
:10102000873079F78EE78093EA001092EA008F8983
:1010300080939A01DBCE8B8D9C8D1092E9001092EB
:101040006F0110926E0190936D0180936C01898DF8
:10105000811192C08E899D89913A49F4813209F0BB
:101060007DCF47E050E064E071E080E0B3CF9132A3
:1010700009F074CF833269F48F89988DB0E0A0E0D5
:101080008093000190930101A0930201B0930301AA
:10109000ADCE803269F48091E80082FFFCCF67E03A
:1010A00084E091E00E9493038BEF8093E8009ECE52
:1010B000823209F09BCE8F8980930B01EEEFFFE720
:1010C000859194918B3F9C4D51F1E0E0F8E0809147
:1010D000040190910501A0910601B0910701803BA8
:1010E0009440A105B105F1F480910B0180FD1AC077
:1010F000EE3F8AE0F80789F587E797E791838083D9
:10110000809160008093700188E19BE00FB6F894B5
:10111000A895809360000FBE9093600067CEEEEFBD
:10112000FAE0D5CF808191818737974709F05ECE6D
:10113000A895809160008861809360008091700123
:1011400080936000EE3F2AE0F20789F08091FE0A6A
:101150009091FF0A9183808349CE80819181873766
:10116000980751F29093FF0A8093FE0AC5CF109220
:10117000FF0A1092FE0A3ACE0E943F01DC0112964D
:101180000D911C910115110509F4E8CED801ED91DE
:10119000FC910190F081E02DBE016B5E7F4FC80194
:1011A0000995811123CEF80100851185EBCF181622
:1011B00019060CF41BCED2CEF1E0FF12BECE62EFC8
:1011C00070E004CF789484B5826084BD84B581607A
:1011D00084BD85B5826085BD85B5816085BD809102
:1011E0006E00816080936E0010928100809181007A
:1011F0008260809381008091810081608093810072
:101200008091800081608093800080919100826055
:1012100080939100809191008160809391008091F2
:1012200090008160809390008091C10084608093E1
:10123000C1008091C10082608093C1008091C10093
:1012400081608093C1008091C30081608093C3005E
:101250008091C00082608093C0008091C200816054
:101260008093C20080917A00846080937A0080919C
:101270007A00826080937A0080917A008160809306
:101280007A0080917A00806880937A0010929A01A7
:1012900010927301109272018091D7008160809347
:1012A000D70080EA8093D80089B5806189BD89B56F
:1012B000826089BD09B400FEFDCF0E947602809154
:1012C000D8008F7C80618093D8008091E000807F7F
:1012D0008093E0008091E1008E7E8093E1008DE0BC
:1012E0008093E200559A209A5D9828988FEF9FEF9F
:1012F0009093A8018093A70182E391E00E94A20449
:1013000061E086E00E94F30160E082E10E94F30167
:1013100060E085E10E94F30162E083E00E94F30156
:1013200062E082E00E94F30183E00E94CA0121E0B2
:10133000892B09F420E02093770182E00E94CA0102
:1013400021E0892B09F420E0209376018091770138
:101350008093750180917601809374018EE892E00C
:1013600090930F0180930E0180916900837F8460C8
:1013700080936900E99A84EB92E090930D01809349
:101380000C01809169008C7F816080936900E89AEC
:101390000E94510270937D0160937C0188248A949D
:1013A00083E0982EA12CB12C98E9C92E91E0D92E7A
:1013B00020E0E22E20E0F22E82E10E942F022EEFAA
:1013C00030E0DC010E94810BA50194010E94180B02
:1013D000E9018901309383012093820185E10E9414
:1013E0002F0228E631E0DC010E94810BA501940167
:1013F0000E94180B309381012093800161E086E008
:101400000E94F301209709F071C080E00E949F01C3
:101410000E9451022B0180917E0190917F01892BC6
:1014200021F1A0917E01B0917F0127E833E943E0EB
:1014300050E00E94420B20917C0130917D01A2017D
:10144000421B530B9A01032E000C440B550B0E94B8
:10145000180B30937B0120937A0110927F01109238
:101460007E0150927D0140927C01809178019091A3
:1014700079018031974251F588E391E00E94A204FE
:1014800080918201909183010E94AF048EE391E0EC
:101490000E94A20480917A0190917B010E94AF0486
:1014A0008AE491E00E94A2048091800190918101E0
:1014B0000E94AF0485E591E00E94A2048FE291E0D2
:1014C0000E94A20410927901109278018091780113
:1014D0009091790101969093790180937801E114BC
:1014E000F10409F469CF0E94000066CFCF3FD10517
:1014F00011F481E08BCFF6018491EFEFE80FEF302C
:1015000008F07CC0F0E0E957F54F0C947B0B960A8D
:101510009B0AA00AAA0AB40AFE0AFE0AFE0ABE0A2A
:10152000C80AD20ADC0AE90AFE0AF10A84B5806810
:1015300084BDC7BD6DCF84B5806284BDC8BD68CF92
:1015400080918000806880938000D0938900C09350
:1015500088005ECF80918000806280938000D0936D
:101560008B00C0938A0054CF809180008860809364
:101570008000D0938D00C0938C004ACF8091900062
:10158000806880939000D0939900C093980040CFDA
:1015900080919000806280939000D0939B00C093D4
:1015A0009A0036CF80919000886080939000D0930D
:1015B0009D00C0939C002CCF8091C00080688093D8
:1015C000C0008091C0008F7B8093C000C093CF008B
:1015D0001FCF8091C00080628093C000C093D00074
:1015E00017CF8091C20088608093C2008091C200B2
:1015F0008B7F8093C200C093D2000ACF00381105C0
:101600000CF077CF02CFEBE9F1E01382128288EE83
:1016100093E0A0E0B0E084839583A683B7838AE15A
:1016200091E0918380838FEF9FEF95878487089562
:10163000052E97FB1EF400940E942F0B57FD07D038
:101640000E944A0B07FC03D04EF40C942F0B5095CC
:101650004095309521953F4F4F4F5F4F089590959E
:101660008095709561957F4F8F4F9F4F08950E9491
:101670006C0BA59F900DB49F900DA49F800D911DA4
:1016800011240895B7FF0C94370B0E94370B821B6F
:10169000930B0895A1E21A2EAA1BBB1BFD010DC0DE
:1016A000AA1FBB1FEE1FFF1FA217B307E407F50712
:1016B00020F0A21BB30BE40BF50B661F771F881FEE
:1016C000991F1A9469F760957095809590959B0184
:1016D000AC01BD01CF010895A29FB001B39FC0012D
:1016E000A39F700D811D1124911DB29F700D811D4E
:1016F0001124911D0895EE0FFF1F0590F491E02D28
:1017000009940E946C0BB7FF0895821B930B0895F8
:04171000F894FFCF7B
:10171400FFFFFFFF00E1000000000000DA02DA0230
:10172400DA02DA02DA02000000002104A003420413
:10173400370488044604640400C180810000000D5D
:101744000A00536574757000496E7075742056658F
:101754006C6F63696461643A2000506F73697469E3
:101764006F6E3A20002D2D2D2D2D2D2D2D2D2D2D4F
:0C1774002D2D2D2D2D2D2D2D2D2D2D007A
:00000001FF
