:100000000C94D3000C94FB000C94FB000C94FB00AC
:100010000C94FB000C94FB000C94FB000C94FB0074
:100020000C94FB000C94FB000C94E4040C9453051A
:100030000C94FB000C94FB000C94FB000C94FB0054
:100040000C94FB000C94FB000C94FB000C94FB0044
:100050000C94FB000C94FB000C94FB000C949A0491
:100060000C94FB000C94FB000C94FB000C94FB0024
:100070000C94FB000C94FB000C94FB000C94FB0014
:100080000C94FB000C94FB000C94FB000C94FB0004
:100090000C94FB000C94FB000C94FB000C94FB00F4
:1000A0000C94FB000C94FB000C94FB00080B00026A
:1000B0000202000009040000010202000005240001
:1000C0001001052401010104240206052406000193
:1000D0000705810310004009040100020A00000026
:1000E00007050202400000070583024000000403E8
:1000F000090412010002EF02014041233780000190
:100100000102030141726475696E6F204C4C43001B
:1001100041726475696E6F204D6963726F000706E6
:1001200005040100080A0B0C0D090000000200097B
:100130000F0000030401000C00000000000000009C
:100140000000000000000000000000000025002862
:10015000002B002E00310000000000240027002AA0
:10016000002D00300004040404040304050202020C
:100170000204030202020206060606060604040240
:100180000202040404080201104080401020408054
:1001900040800802040180402010020110801020DD
:1001A00040402000000911241FBECFEFDAE0DEBF7F
:1001B000CDBF11E0A0E0B1E0E8EEF2E102C00590B1
:1001C0000D92A835B107D9F721E0A8E5B1E001C04B
:1001D0001D92A73CB207E1F710E0C3EDD0E004C0E8
:1001E0002197FE010E946509C23DD107C9F70E940F
:1001F00085070C9472090C940000E7E8F1E0249163
:10020000E8E6F1E08491882399F090E0880F991F47
:10021000FC01E95AFE4FA591B491FC01E75BFE4F4A
:10022000859194918FB7F894EC91E22BEC938FBF6A
:100230000895EDE2F1E02491E7E8F1E03491E8E699
:10024000F1E09491992309F430C02223E9F0215080
:100250002F30D0F4E22FF0E0E05DFE4F0C94650902
:100260005E0162013F0156015A014401440144010B
:1002700065016B016F017301790144017D012091DA
:1002800080002F7720938000E92FF0E0EE0FFF1F12
:10029000E75BFE4FA591B4919FB7F894EC91811163
:1002A00032C030953E233C939FBF0895209180003B
:1002B0002F7DE8CF20918000277FE4CF24B52F77D2
:1002C00024BDE2CF24B52F7DFBCF209190002F7766
:1002D00020939000D9CF209190002F7DF9CF2091CD
:1002E0009000277FF5CF2091C0002F772093C0008A
:1002F000CBCF2091C0002F7DF9CF2091C200277F66
:100300002093C200C1CF3E2BCECFFC01809176015D
:10031000882311F13FB7F89482E08093E90020919F
:10032000F200822F90E01816190614F481E090E094
:10033000882339F0289A44E6409375014091F100F2
:100340004083222339F02091F200211103C02BE6D3
:100350002093E8003FBF08958FEF9FEF08952FB7D8
:10036000F89483E08093E9009091E800892F8072EF
:1003700095FF04C09091F20080E4891B2FBF08957F
:1003800080916D0181110DC082E08093690184E04C
:1003900080936A0110926C0110926B0181E080934E
:1003A0006D0189E691E008958251E82FF0E0E25E68
:1003B000FE4FE49190917B008E2F880F880F807202
:1003C0009F7D892B80937B00E770E064E0937C0045
:1003D00080917A00806480937A0080917A0086FD13
:1003E000FCCF809178009091790008953FB7F89400
:1003F0008091650190916601A0916701B0916801BB
:1004000026B5A89B05C02F3F19F00196A11DB11D6F
:100410003FBFBA2FA92F982F8827BC01CD01620FAB
:10042000711D811D911D42E0660F771F881F991F66
:100430004A95D1F70895CF92DF92EF92FF920E94F2
:10044000F6016B017C010E94F6016C197D098E0991
:100450009F09683E734081059105A8F3FF90EF90D6
:10046000DF90CF90089540915A0150915B01209107
:1004700058013091590142175307B4F49091E800A4
:100480009570E1F39091E80092FD19C08093F1001E
:1004900080915A0190915B0101968F739927892B66
:1004A00019F48EEF8093E80080915A0190915B01DE
:1004B000019690935B0180935A0181E0089580E05A
:1004C0000895EF92FF920F931F93CF93DF93F82E2F
:1004D000192FE62E042F81E0860F880F0E94330229
:1004E00083E00E943302CF2DD12FEC0EFD2EF11CA4
:1004F000CE15DF05B9F007FF13C0FE0184910E94FD
:100500003302182F80E00E9433028123219681114B
:10051000EFCFDF91CF911F910F91FF90EF90089552
:100520008881EDCF81E0F5CFDF92EF92FF920F93BC
:100530001F93CF93DF93D82E8A01EB017B01E40E4A
:10054000F51ECE15DF0559F0D7FE12C0FE018491CD
:100550000E94330221968111F4CF0FEF1FEFC801E3
:10056000DF91CF911F910F91FF90EF90DF90089551
:100570008881EECF0F931F93CF93DF931F92CDB758
:10058000DEB782E0898342E450E06CEA70E080E804
:100590000E9494020E94C001DC0112960D911C91F0
:1005A0000115110589F0D801ED91FC910280F381CC
:1005B000E02DBE016F5F7F4FC801099597FD04C014
:1005C000F80100851185ECCF89810F90DF91CF91E3
:1005D0001F910F910895615030F02091F100FC01BE
:1005E00020830196F8CF289A84E6809375010895B8
:1005F0008F929F92AF92BF92CF92DF92EF92FF9233
:100600000F931F93CF93DF936C017B018A0180913D
:100610000B01882309F458C080917601882309F4DE
:1006200053C080915E0180FF05C08091E000826030
:100630008093E000E801B12C8AEFA82E93E0892E88
:100640002AE3922E209711F4BB20B9F10E94AF014A
:10065000811106C0AA94AA20B9F10E941B02F2CF10
:100660008C171D0611F00CF08C2F9FB7F894809218
:10067000E9002091E80025FD02C09FBFE3CF282FAD
:1006800030E0C21BD30BF701815020F04191409321
:10069000F100FACFE20EF31EBB2021F09092E800A9
:1006A000B12CEBCF8091E80085FDE7CF9092E80078
:1006B000BB24B394209709F3F3CF5D9A84E680932B
:1006C0005D01101611063CF081E090E0F601938385
:1006D000828310E000E0C801DF91CF911F910F915C
:1006E000FF90EF90DF90CF90BF90AF909F908F9052
:1006F0000895CF93DF931F92CDB7DEB76983DC01F6
:10070000ED91FC910280F381E02D41E050E0BE01CB
:100710006F5F7F4F09950F90DF91CF91089583E030
:100720008093E9008091F200882319F08AE3809396
:10073000E80008950E94AF0190E00895CF93DF9301
:100740001F92CDB7DEB7FC018485958597FD08C063
:100750002FEF3FEF358724870F90DF91CF910895DA
:10076000CE0101960E948501019719F4898190E0DC
:10077000F3CF8FEF9FEFF0CF0F931F93CF93DF93C4
:100780001F92CDB7DEB78C01FC018485958597FF5C
:100790000BC0CE0101960E948501019771F48981F9
:1007A00090E0F80195878487F801848595850F90FE
:1007B000DF91CF911F910F9108958FEF9FEFF1CFB0
:1007C000FC018485958597FD0BC09FB7F89482E066
:1007D0008093E9008091F2009FBF90E00196089518
:1007E0009FB7F89482E08093E9008091F2009FBF68
:1007F00090E00895FC0101900020E9F73197AF01E6
:10080000481B590BBC0187E791E00C94F802CF9389
:10081000DF930E94FA03EC0185E291E00E94FA0363
:100820008C0F9D1FDF91CF9108958F929F92AF9271
:10083000BF92CF92DF92EF92FF920F931F93CF93CD
:10084000DF93CDB7DEB7A1970FB6F894DEBF0FBE2A
:10085000CDBF6C01990FEE08FF08F7FE47C06DE2AF
:1008600087E791E00E9479038C0122273327A901B1
:100870002C193D094E095F0919A2CE0181967C0110
:100880009AE0892E912CA12CB12CCA01B901A501A5
:1008900094010E943409605DF70162937F01211584
:1008A00031054105510589F790E080E0309719F056
:1008B000CF010E94FA03080F191F85E291E00E9400
:1008C000FA03800F911FA1960FB6F894DEBF0FBEFA
:1008D000CDBFDF91CF911F910F91FF90EF90DF90EF
:1008E000CF90BF90AF909F908F900895A7019601F1
:1008F00019A28E010F5D1F4F8AE0C82ED12CE12C6A
:10090000F12CCA01B901A70196010E943409605D6A
:10091000F80162938F01211531054105510589F7D1
:10092000309729F0CF010E94FA038C01C6CF10E066
:1009300000E0C3CF1F920F920FB60F9211242F9396
:100940003F938F939F93AF93BF9380916101909159
:100950006201A0916301B09164013091600123E0D4
:10096000230F2D3758F50196A11DB11D209360016D
:100970008093610190936201A0936301B09364013D
:100980008091650190916601A0916701B091680125
:100990000196A11DB11D8093650190936601A093FE
:1009A0006701B0936801BF91AF919F918F913F9183
:1009B0002F910F900FBE0F901F90189526E8230FD0
:1009C0000296A11DB11DD2CF1F920F920FB60F92AA
:1009D00011248F939F938091E1009091E100937F88
:1009E0009093E10083FF0FC01092E90091E0909393
:1009F000EB001092EC0092E39093ED0010927601E0
:100A000098E09093F00082FF22C093E09093E90079
:100A10009091F200992319F09AE39093E800909155
:100A20005D01992341F090915D01915090935D019A
:100A3000911101C05D9890917501992341F09091B9
:100A40007501915090937501911101C0289884FF10
:100A500018C08091E2008E7E81608093E2008091D8
:100A6000E1008F7E8093E10080915E018E7E806147
:100A700080935E019F918F910F900FBE0F901F90FA
:100A8000189580FFF7CF8091E2008E7E8061809381
:100A9000E2008091E1008E7E8093E10080915E0112
:100AA0008E7E8160E5CF1F920F920FB60F921124B8
:100AB000CF92DF92EF92FF920F931F932F933F936A
:100AC0004F935F936F937F938F939F93AF93BF9356
:100AD000EF93FF93CF93DF93CDB7DEB76C97DEBF75
:100AE000CDBF1092E9008091E80083FF25C068E047
:100AF000CE0145960E94EB0282EF8093E8008D893B
:100B000087FF39C09091E80090FFFCCF982F907636
:100B100009F034C19E894F89588D2F89F88C911125
:100B200031C0803861F580915F018093F1001092AF
:100B3000F1008EEF8093E8006C960FB6F894DEBF5C
:100B40000FBECDBFDF91CF91FF91EF91BF91AF91DC
:100B50009F918F917F916F915F914F913F912F91D5
:100B60001F910F91FF90EF90DF90CF900F900FBEED
:100B70000F901F9018959EEF9093E800C7CF1092AA
:100B8000F100D5CF913059F48111D3CF41305105C7
:100B900081F680915F018D7F80935F01CACF933092
:100BA00049F48111C6CF4130510519F680915F019A
:100BB0008260F2CF953041F48091E80080FFFCCF55
:100BC00020682093E300B5CF963009F0A9C00B8DC3
:100BD0001C8D22E01092E90010925B0110925A01E4
:100BE000F2122EC010925901109258010E94BA02BE
:100BF0001F8299E09983FA8291E09E8390EA988718
:100C00009AEF998720915A0130915B01275F3F4FFE
:100C10003C832B838D831092E90010925B0110922C
:100C20005A01109359010093580149E050E0BE0168
:100C30006F5F7F4F80E00E9494020E94BA0279CFDA
:100C400010935901009358010E94C001DC011296D3
:100C50000D911C910115110509F451C1D801ED91B7
:100C6000FC910480F581E02DBE016B5E7F4FC801D1
:100C70000995009709F03EC1F80100851185EACF7A
:100C8000F3E0FF120EC08F89882309F440C0823040
:100C900061F440E86DE080E191E00E946102811121
:100CA00048CF81E28093EB0047CF813029F440E8C0
:100CB0006BE084E091E0F1CF833099F70E94C001AE
:100CC000DC011296ED90FC908E010F5F1F4F6801C2
:100CD000E114F10479F0D701ED91FC910680F781E0
:100CE000E02DB801C7010995080F111DF701E08437
:100CF000F184EECFD8011C92F60101900020E9F7B3
:100D00003197BF016C197D0940E0C601C6CF6EEE78
:100D100070E0FB01449150E080E80E94940209CF0A
:100D2000973009F4BECF983021F481E08093F10030
:100D300000CF993009F0FDCE837009F0B2CFEFE11A
:100D4000F1E081E031E096E32191222371F080937C
:100D5000E9003093EB00DF0111972C912093EC0018
:100D60009093ED008F5F873079F78EE78093EA00EC
:100D70001092EA008F8980937601DBCE8B8D9C8D5B
:100D80001092E90010925B0110925A019093590160
:100D900080935801898D811192C08E899D89913AE5
:100DA00049F4813209F07DCF47E050E064E071E022
:100DB00080E0B3CF913209F074CF833269F48F8928
:100DC000988DB0E0A0E08093000190930101A09382
:100DD0000201B0930301ADCE803269F48091E80046
:100DE00082FFFCCF67E084E091E00E94EB028BEF92
:100DF0008093E8009ECE823209F09BCE8F8980934B
:100E00000B01EEEFFFE7859194918B3F9C4D51F1E3
:100E1000E0E0F8E08091040190910501A0910601C5
:100E2000B0910701803B9440A105B105F1F4809198
:100E30000B0180FD1AC0EE3F8AE0F80789F587E7CD
:100E400097E7918380838091600080935C0188E1C3
:100E50009BE00FB6F894A895809360000FBE909326
:100E6000600067CEEEEFFAE0D5CF808191818737C1
:100E7000974709F05ECEA8958091600088618093C5
:100E8000600080915C0180936000EE3F2AE0F207F1
:100E900089F08091FE0A9091FF0A9183808349CE68
:100EA000808191818737980751F29093FF0A809350
:100EB000FE0AC5CF1092FF0A1092FE0A3ACE0E9497
:100EC000C001DC0112960D911C910115110509F468
:100ED000E8CED801ED91FC910190F081E02DBE01AA
:100EE0006B5E7F4FC8010995811123CEF801008503
:100EF0001185EBCF181619060CF41BCED2CEF1E0FB
:100F0000FF12BECE62EF70E004CF789484B58260A9
:100F100084BD84B5816084BD85B5826085BD85B59D
:100F2000816085BD80916E00816080936E0010921B
:100F30008100809181008260809381008091810096
:100F40008160809381008091800081608093800027
:100F500080919100826080939100809191008160E6
:100F600080939100809190008160809390008091A7
:100F7000C10084608093C1008091C1008260809331
:100F8000C1008091C10081608093C1008091C30045
:100F900081608093C3008091C00082608093C00014
:100FA0008091C20081608093C20080917A00846049
:100FB00080937A0080917A00826080937A00809199
:100FC0007A00816080937A0080917A0080688093B3
:100FD0007A001092760110925F0110925E0180916A
:100FE000D70081608093D70080EA8093D80089B5CC
:100FF000806189BD89B5826089BD09B400FEFDCFDD
:101000000E941B028091D8008F7C80618093D80061
:101010008091E000807F8093E0008091E1008E7EEF
:101020008093E1008DE08093E200559A209A5D98CC
:1010300028988FEF9FEF909384018093830188E23B
:1010400091E00E94FA030E94FD0044244A9483E048
:10105000582E612C712C9DE2292E91E0392E20E032
:10106000C22E20E0D22E82E10E94D4017C0183E1D5
:101070000E94D4014C0184E10E94D4015C012FEF55
:1010800030E0D7010E946B09A30192010E9415096B
:10109000E90189010E94FD00209729F580E00E9466
:1010A00019018EE291E00E940704C7010E94150415
:1010B0008AE391E00E940704C4010E94150483E4BE
:1010C00091E00E940704C5010E9415048CE491E0A0
:1010D0000E940704C8010E941504C114D10419F22A
:1010E0000E940000C0CFCF3FD10511F481E0D7CFDF
:1010F000F1018491EFEFE80FEF3008F07CC0F0E0F1
:10110000EC57F74F0C946509930898089D08A708B9
:10111000B108FB08FB08FB08BB08C508CF08D908C5
:10112000E608FB08EE0884B5806884BDC7BDB9CF6A
:1011300084B5806284BDC8BDB4CF809180008068D2
:1011400080938000D0938900C0938800AACF8091BB
:101150008000806280938000D0938B00C0938A00CF
:10116000A0CF80918000886080938000D0938D0014
:10117000C0938C0096CF80919000806880939000FF
:10118000D0939900C09398008CCF8091900080629A
:1011900080939000D0939B00C0939A0082CF80915F
:1011A0009000886080939000D0939D00C0939C0035
:1011B00078CF8091C00080688093C0008091C0008B
:1011C0008F7B8093C000C093CF006BCF8091C00015
:1011D00080628093C000C093D00063CF8091C20032
:1011E00088608093C2008091C2008B7F8093C20090
:1011F000C093D20056CF003811050CF077CF4ECFF8
:10120000E7E7F1E01382128288EE93E0A0E0B0E01D
:1012100084839583A683B78380E191E09183808363
:101220008FEF9FEF958784870895052E97FB1EF417
:1012300000940E942C0957FD07D00E94340907FC36
:1012400003D04EF40C942C0950954095309521957F
:101250003F4F4F4F5F4F08959095809570956195E2
:101260007F4F8F4F9F4F0895A1E21A2EAA1BBB1BE1
:10127000FD010DC0AA1FBB1FEE1FFF1FA217B30762
:10128000E407F50720F0A21BB30BE40BF50B661F78
:10129000771F881F991F1A9469F76095709580953C
:1012A00090959B01AC01BD01CF010895A29FB001B3
:1012B000B39FC001A39F700D811D1124911DB29F8A
:1012C000700D811D1124911D0895EE0FFF1F0590D3
:1012D000F491E02D09940E945609B7FF0895821BEE
:0812E000930B0895F894FFCF71
:1012E800FFFFFFFF00E10000000000000000000019
:1012F8007903F8029A038F03E0039E03BC0300C13D
:1013080080810000000D0A005365747570007365D4
:101318006E736F7256616C7565006368616E6E6599
:101328006C41006368616E6E656C42007370656540
:081338006456616C756500004C
:00000001FF
