:100000000C94DA000C9402010C9402010C9402018D
:100010000C9402010C9402010C9402010C94020154
:100020000C9402010C9402010C94D8050C94470620
:100030000C9402010C9402010C9402010C94020134
:100040000C9402010C9402010C9402010C94020124
:100050000C9402010C9402010C9402010C948E0584
:100060000C9402010C9402010C9402010C94020104
:100070000C9402010C9402010C9402010C940201F4
:100080000C9402010C9402010C9402010C940201E4
:100090000C9402010C9402010C9402010C940201D4
:1000A0000C9402010C9402010C940201080B000252
:1000B0000202000009040000010202000005240001
:1000C0001001052401010104240206052406000193
:1000D0000705810310004009040100020A00000026
:1000E00007050202400000070583024000000403E8
:1000F000090412010002EF02014041233780000190
:100100000102030141726475696E6F204C4C43001B
:1001100041726475696E6F204D6963726F000706E6
:1001200005040100080A0B0C0D0900000000240062
:1001300027002A002D0030000000000023002600C8
:1001400029002C002F0000000000250028002B00B3
:100150002E00310004040404040304050202020218
:100160000403020202020606060606060404020250
:100170000204040408020110408040102040804026
:1001800080080204018040201002011080102040ED
:1001900040200000000200090F0000030401000CD1
:1001A000000000000000000000000000000000004F
:1001B0000000410A11241FBECFEFDAE0DEBFCDBF41
:1001C00011E0A0E0B1E0EAE6F5E102C005900D9291
:1001D000A837B107D9F721E0A8E7B1E001C01D9227
:1001E000A73FB207E1F710E0CAEDD0E004C02197C5
:1001F000FE010E94A60AC93DD107C9F70E947908ED
:100200000C94B30A0C940000FC018091A601882391
:1002100011F13FB7F89482E08093E9002091F20059
:10022000822F90E01816190614F481E090E08823DC
:1002300039F0289A44E64093A5014091F1004083AB
:10024000222339F02091F200211103C02BE62093E4
:10025000E8003FBF08958FEF9FEF08952FB7F89400
:1002600083E08093E9009091E800892F807295FFE8
:1002700004C09091F20080E4891B2FBF0895809103
:100280009D0181110DC082E08093990184E08093EB
:100290009A0110929C0110929B0181E080939D0134
:1002A00089E991E0089581508F3008F047C0E82F28
:1002B000F0E0E35AFE4F0C94A60A7A017E016C012D
:1002C000720176019E019E019E01810187018B01D1
:1002D0008F0195019E019901809180008F77809315
:1002E00080000895809180008F7DF9CF80918000FB
:1002F000877FF5CF84B58F7784BD089584B58F7DD2
:10030000FBCF809190008F7780939000089580912B
:1003100090008F7DF9CF80919000877FF5CF8091FD
:10032000C0008F778093C00008958091C0008F7DBA
:10033000F9CF8091C200877F8093C20008951F93F8
:10034000CF93DF93E5E9F1E09491E6E7F1E0D49112
:10035000E7E5F1E0C491CC23B9F0182F992319F007
:10036000892F0E945301EC2FF0E0EE0FFF1FEA5B94
:10037000FE4FA591B4918FB7F894EC91111108C07C
:10038000D095DE23DC938FBFDF91CF911F9108952D
:10039000DE2BF8CFE5E9F1E0E491E150EF3008F031
:1003A0007CC0F0E0EA52FE4F0C94A60AE501EA0197
:1003B000EF01F90103024D024D024D020D02170239
:1003C00021022B0238024D02400294B5906894BD80
:1003D00087BD089594B5906294BD88BD089520911D
:1003E000800020682093800090938900809388008B
:1003F00008952091800020622093800090938B00CC
:1004000080938A00089520918000286020938000C6
:1004100090938D0080938C00089520919000206827
:1004200020939000909399008093980008952091D4
:10043000900020622093900090939B0080939A00FC
:1004400008952091900028602093900090939D0043
:1004500080939C0008959091C00090689093C00094
:100460009091C0009F7B9093C0008093CF0008952F
:100470009091C00090629093C0008093D000089546
:100480009091C20098609093C2009091C2009B7FAF
:100490009093C2008093D200089580E00C949F0155
:1004A000CF93DF93282F30E0F901EE56FE4F849171
:1004B000F901ED58FE4FD491F901EC5AFE4FC49169
:1004C000CC23A1F081110E945301EC2FF0E0EE0F3C
:1004D000FF1FE85CFE4FA591B491EC91ED2381E004
:1004E00090E009F480E0DF91CF91089580E090E002
:1004F000FACFCF93DF9390E0FC01ED58FE4F2491AB
:100500008C5A9E4FFC0184918823D1F090E0880F93
:10051000991FFC01E65DFE4FA591B491FC01EA5BD9
:10052000FE4FC591D49161110EC09FB7F8948C9184
:10053000E22FE0958E238C932881E223E8839FBFEE
:10054000DF91CF9108958FB7F894EC91E22BEC9363
:100550008FBFF6CF8251E82FF0E0E25EFE4FE491CC
:1005600090917B008E2F880F880F80729F7D892B42
:1005700080937B00E770E064E0937C0080917A00D8
:10058000806480937A0080917A0086FDFCCF809110
:1005900078009091790008953FB7F8948091950183
:1005A00090919601A0919701B091980126B5A89BD2
:1005B00005C02F3F19F00196A11DB11D3FBFBA2FF5
:1005C000A92F982F8827BC01CD01620F711D811DB5
:1005D000911D42E0660F771F881F991F4A95D1F73A
:1005E00008958F929F92AF92BF92CF92DF92EF9237
:1005F000FF924B015C010E94CC026B017C010E94C6
:10060000CC026C197D098E099F09683E73408105F3
:100610009105A8F321E0821A9108A108B10888EE9B
:10062000C80E83E0D81EE11CF11C81149104A104C2
:10063000B10429F7FF90EF90DF90CF90BF90AF907B
:100640009F908F90089540917A0150917B01209165
:1006500078013091790142175307B4F49091E80082
:100660009570E1F39091E80092FD19C08093F1003C
:1006700080917A0190917B0101968F739927892B44
:1006800019F48EEF8093E80080917A0190917B01BC
:10069000019690937B0180937A0181E0089580E038
:1006A0000895EF92FF920F931F93CF93DF93F82E4D
:1006B000192FE62E042F81E0860F880F0E94230356
:1006C00083E00E942303CF2DD12FEC0EFD2EF11CD1
:1006D000CE15DF05B9F007FF13C0FE0184910E941B
:1006E0002303182F80E00E94230381232196811188
:1006F000EFCFDF91CF911F910F91FF90EF90089571
:100700008881EDCF81E0F5CFDF92EF92FF920F93DA
:100710001F93CF93DF93D82E8A01EB017B01E40E68
:10072000F51ECE15DF0559F0D7FE12C0FE018491EB
:100730000E94230321968111F4CF0FEF1FEFC80110
:10074000DF91CF911F910F91FF90EF90DF9008956F
:100750008881EECF0F931F93CF93DF931F92CDB776
:10076000DEB782E0898342E450E06CEA70E080E822
:100770000E9484030E943F01DC0112960D911C919E
:100780000115110589F0D801ED91FC910280F381EA
:10079000E02DBE016F5F7F4FC801099597FD04C032
:1007A000F80100851185ECCF89810F90DF91CF9101
:1007B0001F910F910895615030F02091F100FC01DC
:1007C00020830196F8CF289A84E68093A5010895A6
:1007D0008F929F92AF92BF92CF92DF92EF92FF9251
:1007E0000F931F93CF93DF936C017B018A0180915C
:1007F0000B01882309F45CC08091A601882309F4C9
:1008000057C080917E0180FF05C08091E00082602A
:100810008093E000E801B12C8AEFA82E93E0892EA6
:100820002AE3922E209711F4BB20D9F10E942E01C9
:1008300081110AC0AA94AA20D9F161E070E080E099
:1008400090E00E94F102EECF8C171D0611F00CF023
:100850008C2F9FB7F8948092E9002091E80025FD45
:1008600002C09FBFDFCF282F30E0C21BD30BF701A0
:10087000815020F041914093F100FACFE20EF31E37
:10088000BB2021F09092E800B12CEBCF8091E800E2
:1008900085FDE7CF9092E800BB24B394209709F33D
:1008A000F3CF5D9A84E680937D01101611063CF02B
:1008B00081E090E0F6019383828310E000E0C801BC
:1008C000DF91CF911F910F91FF90EF90DF90CF902C
:1008D000BF90AF909F908F900895CF93DF931F921A
:1008E000CDB7DEB76983DC01ED91FC910280F38125
:1008F000E02D41E050E0BE016F5F7F4F09950F9002
:10090000DF91CF91089583E08093E9008091F20018
:10091000882319F08AE38093E80008950E942E014D
:1009200090E00895CF93DF931F92CDB7DEB7FC011F
:100930008485958597FD08C02FEF3FEF3587248785
:100940000F90DF91CF910895CE0101960E9404018E
:10095000019719F4898190E0F3CF8FEF9FEFF0CFEB
:100960000F931F93CF93DF931F92CDB7DEB78C0108
:10097000FC018485958597FF0BC0CE0101960E94EE
:100980000401019771F4898190E0F80195878487CB
:10099000F801848595850F90DF91CF911F910F917C
:1009A00008958FEF9FEFF1CFFC018485958597FD2A
:1009B0000BC09FB7F89482E08093E9008091F20029
:1009C0009FBF90E0019608959FB7F89482E08093CE
:1009D000E9008091F2009FBF90E00895FC01019032
:1009E0000020E9F73197AF01481B590BBC0187EA9A
:1009F00091E00C94E803CF93DF930E94EE04EC01A6
:100A000085E291E00E94EE048C0F9D1FDF91CF9153
:100A100008958F929F92AF92BF92CF92DF92EF9202
:100A2000FF920F931F93CF93DF93CDB7DEB7A197BC
:100A30000FB6F894DEBF0FBECDBF6C01990FEE0864
:100A4000FF08F7FE47C06DE287EA91E00E946D045F
:100A50008C0122273327A9012C193D094E095F0972
:100A600019A2CE0181967C019AE0892E912CA12CAD
:100A7000B12CCA01B901A50194010E94750A605DFB
:100A8000F70162937F01211531054105510589F771
:100A900090E080E0309719F0CF010E94EE04080F3B
:100AA000191F85E291E00E94EE04800F911FA1962C
:100AB0000FB6F894DEBF0FBECDBFDF91CF911F916F
:100AC0000F91FF90EF90DF90CF90BF90AF909F90ED
:100AD0008F900895A701960119A28E010F5D1F4FF7
:100AE0008AE0C82ED12CE12CF12CCA01B901A70152
:100AF00096010E94750A605DF80162938F012115CD
:100B000031054105510589F7309729F0CF010E9441
:100B1000EE048C01C6CF10E000E0C3CF1F920F920D
:100B20000FB60F9211242F933F938F939F93AF9300
:100B3000BF938091910190919201A0919301B09106
:100B400094013091900123E0230F2D3758F5019641
:100B5000A11DB11D2093900180939101909392016A
:100B6000A0939301B0939401809195019091960187
:100B7000A0919701B09198010196A11DB11D80939C
:100B8000950190939601A0939701B0939801BF911E
:100B9000AF919F918F913F912F910F900FBE0F902A
:100BA0001F90189526E8230F0296A11DB11DD2CFE4
:100BB0001F920F920FB60F9211248F939F938091E3
:100BC000E1009091E100937F9093E10083FF0FC0DB
:100BD0001092E90091E09093EB001092EC0092E308
:100BE0009093ED001092A60198E09093F00082FFA0
:100BF00022C093E09093E9009091F200992319F0BC
:100C00009AE39093E80090917D01992341F09091AF
:100C10007D01915090937D01911101C05D9890915B
:100C2000A501992341F09091A50191509093A501C0
:100C3000911101C0289884FF18C08091E2008E7E37
:100C400081608093E2008091E1008F7E8093E100DB
:100C500080917E018E7E806180937E019F918F9135
:100C60000F900FBE0F901F90189580FFF7CF8091C7
:100C7000E2008E7E80618093E2008091E1008E7EB2
:100C80008093E10080917E018E7E8160E5CF1F928E
:100C90000F920FB60F921124CF92DF92EF92FF9234
:100CA0000F931F932F933F934F935F936F937F9374
:100CB0008F939F93AF93BF93EF93FF93CF93DF9364
:100CC000CDB7DEB76C97DEBFCDBF1092E900809143
:100CD000E80083FF25C068E0CE0145960E94DB0353
:100CE00082EF8093E8008D8987FF39C09091E800FA
:100CF00090FFFCCF982F907609F034C19E894F89E0
:100D0000588D2F89F88C911131C0803861F5809110
:100D10007F018093F1001092F1008EEF8093E80044
:100D20006C960FB6F894DEBF0FBECDBFDF91CF91AA
:100D3000FF91EF91BF91AF919F918F917F916F91B3
:100D40005F914F913F912F911F910F91FF90EF90E5
:100D5000DF90CF900F900FBE0F901F9018959EEFD1
:100D60009093E800C7CF1092F100D5CF913059F49D
:100D70008111D3CF4130510581F680917F018D7F64
:100D800080937F01CACF933049F48111C6CF41309F
:100D9000510519F680917F018260F2CF953041F4C0
:100DA0008091E80080FFFCCF20682093E300B5CF5E
:100DB000963009F0A9C00B8D1C8D22E01092E9003D
:100DC00010927B0110927A01F2122EC010927901DA
:100DD000109278010E94AA031F8299E09983FA82F7
:100DE00091E09E8390EA98879AEF998720917A0103
:100DF00030917B01275F3F4F3C832B838D83109283
:100E0000E90010927B0110927A011093790100930E
:100E1000780149E050E0BE016F5F7F4F80E00E94A3
:100E200084030E94AA0379CF10937901009378017B
:100E30000E943F01DC0112960D911C9101151105D4
:100E400009F451C1D801ED91FC910480F581E02DA8
:100E5000BE016B5E7F4FC8010995009709F03EC146
:100E6000F80100851185EACFF3E0FF120EC08F89EB
:100E7000882309F440C0823061F440E86DE080E1ED
:100E800091E00E945103811148CF81E28093EB00F1
:100E900047CF813029F440E86BE084E091E0F1CF66
:100EA000833099F70E943F01DC011296ED90FC908F
:100EB0008E010F5F1F4F6801E114F10479F0D70133
:100EC000ED91FC910680F781E02DB801C7010995ED
:100ED000080F111DF701E084F184EECFD8011C92B8
:100EE000F60101900020E9F73197BF016C197D09E7
:100EF00040E0C601C6CF6EEE70E0FB01449150E0C9
:100F000080E80E94840309CF973009F4BECF98305F
:100F100021F481E08093F10000CF993009F0FDCEFB
:100F2000837009F0B2CFEFE1F1E081E031E096E3C8
:100F30002191222371F08093E9003093EB00DF01CF
:100F400011972C912093EC009093ED008F5F8730E8
:100F500079F78EE78093EA001092EA008F898093F8
:100F6000A601DBCE8B8D9C8D1092E90010927B0147
:100F700010927A019093790180937801898D811183
:100F800092C08E899D89913A49F4813209F07DCFD2
:100F900047E050E064E071E080E0B3CF913209F0C7
:100FA00074CF833269F48F89988DB0E0A0E080938C
:100FB000000190930101A0930201B0930301ADCE13
:100FC000803269F48091E80082FFFCCF67E084E022
:100FD00091E00E94DB038BEF8093E8009ECE82328B
:100FE00009F09BCE8F8980930B01EEEFFFE785918F
:100FF00094918B3F9C4D51F1E0E0F8E08091040129
:1010000090910501A0910601B0910701803B9440A9
:10101000A105B105F1F480910B0180FD1AC0EE3FEE
:101020008AE0F80789F587E797E7918380838091C5
:10103000600080937C0188E19BE00FB6F894A8954E
:10104000809360000FBE9093600067CEEEEFFAE0F1
:10105000D5CF808191818737974709F05ECEA895DB
:101060008091600088618093600080917C01809312
:101070006000EE3F2AE0F20789F08091FE0A90912D
:10108000FF0A9183808349CE8081918187379807B9
:1010900051F29093FF0A8093FE0AC5CF1092FF0A87
:1010A0001092FE0A3ACE0E943F01DC0112960D9189
:1010B0001C910115110509F4E8CED801ED91FC91C0
:1010C0000190F081E02DBE016B5E7F4FC801099554
:1010D000811123CEF80100851185EBCF1816190672
:1010E0000CF41BCED2CEF1E0FF12BECE62EF70E068
:1010F00004CF789484B5826084BD84B5816084BD5A
:1011000085B5826085BD85B5816085BD80916E00A5
:10111000816080936E0010928100809181008260D6
:101120008093810080918100816080938100809113
:101130008000816080938000809191008260809324
:101140009100809191008160809391008091900046
:101150008160809390008091C10084608093C10081
:101160008091C10082608093C1008091C100816044
:101170008093C1008091C30081608093C3008091FF
:10118000C00082608093C0008091C2008160809323
:10119000C20080917A00846080937A0080917A0006
:1011A000826080937A0080917A00816080937A00D7
:1011B00080917A00806880937A001092A601109244
:1011C0007F0110927E018091D70081608093D700CB
:1011D00080EA8093D80089B5806189BD89B5826035
:1011E00089BD09B400FEFDCF61E070E080E090E0D1
:1011F0000E94F1028091D8008F7C80618093D8009A
:101200008091E000807F8093E0008091E1008E7EFD
:101210008093E1008DE08093E200559A209A5D98DA
:1012200028988FEF9FEF9093B4018093B30188E2E9
:1012300091E00E94EE0461E083E00E94790261E0A7
:1012400085E00E94790260E083E10E94790260E01B
:1012500084E10E94790260E084E10E94790260E00A
:1012600086E10E947902CC24CA9433E0D32EE12C8B
:10127000F12CC0E0D0E008E611E082E10E94AA0271
:1012800086E10E94AA0285E10E94AA0228E631E0D6
:10129000DC010E94AC0AA70196010E94560A59017E
:1012A00030938F0120938E0161E083E00E947902E8
:1012B0008EE690E00E94CA0183E10E94500284E120
:1012C0000E94500283E10E94500299249394892B3A
:1012D00009F4912C90928D0180918C01981621F146
:1012E00084E10E94500240918A0150918B0120912B
:1012F0008801309189019816190609F4B1C04F5F31
:101300005F4F50938B0140938A012F5F3F4F2836E8
:1013100081E038072CF4309389012093880104C0C0
:101320001092890110928801AB2851F580918601B5
:10133000909187010A9724F1A0908401B0908501D3
:101340008FEFA81AB80AB0928501A09284018EE2AC
:1013500091E00E94FB0486E391E00E94EE04C50147
:101360000E94090586E491E00E94EE0480918A01C2
:1013700090918B010E9409058EE291E00E94FB048E
:101380008091840190918501059709F057C0809163
:101390008601909187010A970CF450C087E591E08F
:1013A0000E94FB048DE591E00E94EE048091820191
:1013B000909183010E9409058EE691E00E94EE045F
:1013C00080918001909181010E94090587E591E05B
:1013D0000E94FB0480918A0190918B01909383017C
:1013E000809382012091800130918101820F931FAF
:1013F00097FD019695958795909381018093800143
:1014000010928B0110928A01109285011092840132
:1014100061E083E00E9479028FE790E00E94CA01B8
:1014200060E177E280E090E00E94F10261E083E019
:101430000E94790282E390E00E94CA0180918E01AD
:1014400090918F01909387018093860180918D0107
:1014500080938C01209709F410CF0E9400000DCFDB
:101460004150510950938B0140938A012150310919
:10147000121613060CF44FCF1093890100938801C4
:1014800053CFE7EAF1E01382128288EE93E0A0E006
:10149000B0E084839583A683B78380E191E0918354
:1014A00080838FEF9FEF958784870895052E97FBA4
:1014B0001EF400940E946D0A57FD07D00E94750A21
:1014C00007FC03D04EF40C946D0A5095409530956E
:1014D00021953F4F4F4F5F4F0895909580957095A0
:1014E00061957F4F8F4F9F4F0895A1E21A2EAA1B3F
:1014F000BB1BFD010DC0AA1FBB1FEE1FFF1FA217C4
:10150000B307E407F50720F0A21BB30BE40BF50BC0
:10151000661F771F881F991F1A9469F76095709549
:10152000809590959B01AC01BD01CF010895A29FCC
:10153000B001B39FC001A39F700D811D1124911DA7
:10154000B29F700D811D1124911D0895EE0FFF1F94
:101550000590F491E02D09940E94970AB7FF089531
:0A156000821B930B0895F894FFCF4F
:10156A00FFFFFFFF00E10000000000000000000094
:10157A006D04E8038E048304D4049204B00400C109
:10158A0080810000000D0A005365747570002A2AD4
:10159A002A2A2A2A2000726F756E645F636F756E3D
:1015AA007465723A2000656E636F6465725F6F7569
:1015BA006E7465723A20002D2D2D2D2D006C6173ED
:1015CA00745F355F636F756E7465723A20006D657E
:0815DA006469616E3A20000013
:00000001FF
