:100000000C94DA000C9402010C9402010C9402018D
:100010000C9402010C9402010C9402010C94020154
:100020000C9402010C9402010C94F2040C946105EE
:100030000C9402010C9402010C9402010C94020134
:100040000C9402010C9402010C9402010C94020124
:100050000C9402010C9402010C9402010C94A8046B
:100060000C9402010C9402010C9402010C94020104
:100070000C9402010C9402010C9402010C940201F4
:100080000C9402010C9402010C9402010C940201E4
:100090000C9402010C9402010C9402010C940201D4
:1000A0000C9402010C9402010C940201080B000252
:1000B0000202000009040000010202000005240001
:1000C0001001052401010104240206052406000193
:1000D0000705810310004009040100020A00000026
:1000E00007050202400000070583024000000403E8
:1000F000090412010002EF02014041233780000190
:100100000102030141726475696E6F204C4C43001B
:1001100041726475696E6F204D6963726F000706E6
:1001200005040100080A0B0C0D0900000000240062
:1001300027002A002D0030000000000023002600C8
:1001400029002C002F0000000000250028002B00B3
:100150002E00310004040404040304050202020218
:100160000403020202020606060606060404020250
:100170000204040408020110408040102040804026
:1001800080080204018040201002011080102040ED
:1001900040200000000200090F0000030401000CD1
:1001A000000000000000000000000000000000004F
:1001B0000000A10911241FBECFEFDAE0DEBFCDBFE2
:1001C00011E0A0E0B1E0EAE2F4E102C005900D9296
:1001D000A834B107D9F721E0A8E4B1E001C01D922D
:1001E000AD3BB207E1F710E0CAEDD0E004C02197C3
:1001F000FE010E94060AC93DD107C9F70E94930774
:100200000C94130A0C940000FC0180916C0188236B
:1002100011F13FB7F89482E08093E9002091F20059
:10022000822F90E01816190614F481E090E08823DC
:1002300039F0289A44E640936B014091F1004083E5
:10024000222339F02091F200211103C02BE62093E4
:10025000E8003FBF08958FEF9FEF08952FB7F89400
:1002600083E08093E9009091E800892F807295FFE8
:1002700004C09091F20080E4891B2FBF0895809103
:10028000630181110DC082E080935F0184E080935F
:100290006001109262011092610181E0809363011C
:1002A0008FE591E0089581508F3008F047C0E82F26
:1002B000F0E0E35AFE4F0C94060A7A017E016C01CD
:1002C000720176019E019E019E01810187018B01D1
:1002D0008F0195019E019901809180008F77809315
:1002E00080000895809180008F7DF9CF80918000FB
:1002F000877FF5CF84B58F7784BD089584B58F7DD2
:10030000FBCF809190008F7780939000089580912B
:1003100090008F7DF9CF80919000877FF5CF8091FD
:10032000C0008F778093C00008958091C0008F7DBA
:10033000F9CF8091C200877F8093C20008951F93F8
:10034000CF93DF93E5E9F1E09491E6E7F1E0D49112
:10035000E7E5F1E0C491CC23B9F0182F992319F007
:10036000892F0E945301EC2FF0E0EE0FFF1FEA5B94
:10037000FE4FA591B4918FB7F894EC91111108C07C
:10038000D095DE23DC938FBFDF91CF911F9108952D
:10039000DE2BF8CFCF93DF93282F30E0F901EE5614
:1003A000FE4F8491F901ED58FE4FD491F901EC5ABA
:1003B000FE4FC491CC23A1F081110E945301EC2F78
:1003C000F0E0EE0FFF1FE85CFE4FA591B491EC91B9
:1003D000ED2381E090E009F480E0DF91CF91089572
:1003E00080E090E0FACFCF93DF9390E0FC01ED58EE
:1003F000FE4F24918C5A9E4FFC0184918823D1F0AA
:1004000090E0880F991FFC01E65DFE4FA591B49125
:10041000FC01EA5BFE4FC591D49161110EC09FB7FC
:10042000F8948C91E22FE0958E238C932881E2231F
:10043000E8839FBFDF91CF9108958FB7F894EC9137
:10044000E22BEC938FBFF6CF3FB7F89480915B011E
:1004500090915C01A0915D01B0915E0126B5A89BD1
:1004600005C02F3F19F00196A11DB11D3FBFBA2F46
:10047000A92F982F8827BC01CD01620F711D811D06
:10048000911D42E0660F771F881F991F4A95D1F78B
:100490000895CF92DF92EF92FF920E9424026B01A7
:1004A0007C010E9424026C197D098E099F09683E17
:1004B000734081059105A8F3FF90EF90DF90CF90F6
:1004C000089540914A0150914B012091480130918B
:1004D000490142175307B4F49091E8009570E1F395
:1004E0009091E80092FD19C08093F10080914A013B
:1004F00090914B0101968F739927892B19F48EEFF8
:100500008093E80080914A0190914B01019690936D
:100510004B0180934A0181E0089580E00895EF92B5
:10052000FF920F931F93CF93DF93F82E192FE62E90
:10053000042F81E0860F880F0E94610283E00E94F1
:100540006102CF2DD12FEC0EFD2EF11CCE15DF0553
:10055000B9F007FF13C0FE0184910E946102182FB9
:1005600080E00E946102812321968111EFCFDF910B
:10057000CF911F910F91FF90EF9008958881EDCF5B
:1005800081E0F5CFDF92EF92FF920F931F93CF930D
:10059000DF93D82E8A01EB017B01E40EF51ECE1508
:1005A000DF0559F0D7FE12C0FE0184910E9461025E
:1005B00021968111F4CF0FEF1FEFC801DF91CF918A
:1005C0001F910F91FF90EF90DF9008958881EECFFB
:1005D0000F931F93CF93DF931F92CDB7DEB782E0C7
:1005E000898342E450E06CEA70E080E80E94C20235
:1005F0000E943F01DC0112960D911C91011511051D
:1006000089F0D801ED91FC910280F381E02DBE01CB
:100610006F5F7F4FC801099597FD04C0F801008501
:100620001185ECCF89810F90DF91CF911F910F91B0
:100630000895615030F02091F100FC012083019673
:10064000F8CF289A84E680936B0108958F929F9249
:10065000AF92BF92CF92DF92EF92FF920F931F93D0
:10066000CF93DF936C017B018A0180910B0188237A
:1006700009F458C080916C01882309F453C080911B
:100680004E0180FF05C08091E00082608093E00011
:10069000E801B12C8AEFA82E93E0892E2AE3922E4E
:1006A000209711F4BB20B9F10E942E01811106C0E0
:1006B000AA94AA20B9F10E944902F2CF8C171D0614
:1006C00011F00CF08C2F9FB7F8948092E9002091E4
:1006D000E80025FD02C09FBFE3CF282F30E0C21BFA
:1006E000D30BF701815020F041914093F100FACFF4
:1006F000E20EF31EBB2021F09092E800B12CEBCF6C
:100700008091E80085FDE7CF9092E800BB24B39488
:10071000209709F3F3CF5D9A84E680934D0110167C
:1007200011063CF081E090E0F6019383828310E0B3
:1007300000E0C801DF91CF911F910F91FF90EF90E2
:10074000DF90CF90BF90AF909F908F900895CF9300
:10075000DF931F92CDB7DEB76983DC01ED91FC9189
:100760000280F381E02D41E050E0BE016F5F7F4FDA
:1007700009950F90DF91CF91089583E08093E90070
:100780008091F200882319F08AE38093E8000895AD
:100790000E942E0190E00895CF93DF931F92CDB772
:1007A000DEB7FC018485958597FD08C02FEF3FEFEC
:1007B000358724870F90DF91CF910895CE01019660
:1007C0000E940401019719F4898190E0F3CF8FEF23
:1007D0009FEFF0CF0F931F93CF93DF931F92CDB76F
:1007E000DEB78C01FC018485958597FF0BC0CE0197
:1007F00001960E940401019771F4898190E0F8014B
:1008000095878487F801848595850F90DF91CF9136
:100810001F910F9108958FEF9FEFF1CFFC01848519
:10082000958597FD0BC09FB7F89482E08093E9000F
:100830008091F2009FBF90E0019608959FB7F894D1
:1008400082E08093E9008091F2009FBF90E00895DC
:10085000FC0101900020E9F73197AF01481B590BCB
:10086000BC018DE691E00C9426038F929F92AF928B
:10087000BF920F931F93CF93DF93CDB7DEB7A197AE
:100880000FB6F894DEBF0FBECDBF19A2423008F4F8
:100890004AE08E010F5D1F4F842E912CB12CA12CAC
:1008A000A50194010E94D509E62FB901CA01EA30D9
:1008B000F4F4E05DD801EE938D01232B242B252B3E
:1008C00079F790E080E0109719F0CD010E9428049C
:1008D000A1960FB6F894DEBF0FBECDBFDF91CF91CA
:1008E0001F910F91BF90AF909F908F900895E95CFA
:1008F000E1CFCF92DF92EF92FF92CF93DF936B0124
:100900007C016DE28DE691E00E94A703EC01662771
:100910007727CB016C197D098E099F094AE00E9457
:1009200035048C0F9D1FDF91CF91FF90EF90DF90EA
:10093000CF900895CF93DF930E942804EC0185E2C5
:1009400091E00E9428048C0F9D1FDF91CF910895A4
:100950001F920F920FB60F9211242F933F938F93F4
:100960009F93AF93BF938091570190915801A091AD
:100970005901B0915A013091560123E0230F2D37D0
:1009800058F50196A11DB11D209356018093570182
:1009900090935801A0935901B0935A0180915B0143
:1009A00090915C01A0915D01B0915E010196A11D45
:1009B000B11D80935B0190935C01A0935D01B093A6
:1009C0005E01BF91AF919F918F913F912F910F90B9
:1009D0000FBE0F901F90189526E8230F0296A11DB9
:1009E000B11DD2CF1F920F920FB60F9211248F9389
:1009F0009F938091E1009091E100937F9093E100BB
:100A000083FF0FC01092E90091E09093EB001092E9
:100A1000EC0092E39093ED0010926C0198E09093BB
:100A2000F00082FF22C093E09093E9009091F200E1
:100A3000992319F09AE39093E80090914D0199233E
:100A400041F090914D01915090934D01911101C051
:100A50005D9890916B01992341F090916B019150B9
:100A600090936B01911101C0289884FF18C0809168
:100A7000E2008E7E81608093E2008091E1008F7EB3
:100A80008093E10080914E018E7E806180934E01C3
:100A90009F918F910F900FBE0F901F90189580FF20
:100AA000F7CF8091E2008E7E80618093E20080919A
:100AB000E1008E7E8093E10080914E018E7E816008
:100AC000E5CF1F920F920FB60F921124CF92DF92B3
:100AD000EF92FF920F931F932F933F934F935F9348
:100AE0006F937F938F939F93AF93BF93EF93FF93F6
:100AF000CF93DF93CDB7DEB76C97DEBFCDBF10923B
:100B0000E9008091E80083FF25C068E0CE014596AA
:100B10000E94190382EF8093E8008D8987FF39C016
:100B20009091E80090FFFCCF982F907609F034C1A7
:100B30009E894F89588D2F89F88C911131C080384A
:100B400061F580914F018093F1001092F1008EEFDA
:100B50008093E8006C960FB6F894DEBF0FBECDBF51
:100B6000DF91CF91FF91EF91BF91AF919F918F91C5
:100B70007F916F915F914F913F912F911F910F91B5
:100B8000FF90EF90DF90CF900F900FBE0F901F90CF
:100B900018959EEF9093E800C7CF1092F100D5CF43
:100BA000913059F48111D3CF4130510581F68091B4
:100BB0004F018D7F80934F01CACF933049F481114B
:100BC000C6CF4130510519F680914F018260F2CFB6
:100BD000953041F48091E80080FFFCCF206820939D
:100BE000E300B5CF963009F0A9C00B8D1C8D22E033
:100BF0001092E90010924B0110924A01F2122EC09D
:100C000010924901109248010E94E8021F8299E067
:100C10009983FA8291E09E8390EA98879AEF998768
:100C200020914A0130914B01275F3F4F3C832B833A
:100C30008D831092E90010924B0110924A0110939B
:100C400049010093480149E050E0BE016F5F7F4FCA
:100C500080E00E94C2020E94E80279CF109349010D
:100C6000009348010E943F01DC0112960D911C91F6
:100C70000115110509F451C1D801ED91FC910480D1
:100C8000F581E02DBE016B5E7F4FC801099500978D
:100C900009F03EC1F80100851185EACFF3E0FF12AB
:100CA0000EC08F89882309F440C0823061F440E887
:100CB0006DE080E191E00E948F02811148CF81E2D6
:100CC0008093EB0047CF813029F440E86BE084E06B
:100CD00091E0F1CF833099F70E943F01DC01129639
:100CE000ED90FC908E010F5F1F4F6801E114F1043D
:100CF00079F0D701ED91FC910680F781E02DB801E4
:100D0000C7010995080F111DF701E084F184EECFAA
:100D1000D8011C92F60101900020E9F73197BF013C
:100D20006C197D0940E0C601C6CF6EEE70E0FB0194
:100D3000449150E080E80E94C20209CF973009F444
:100D4000BECF983021F481E08093F10000CF99303C
:100D500009F0FDCE837009F0B2CFEFE1F1E081E060
:100D600031E096E32191222371F08093E9003093E2
:100D7000EB00DF0111972C912093EC009093ED0094
:100D80008F5F873079F78EE78093EA001092EA0050
:100D90008F8980936C01DBCE8B8D9C8D1092E90046
:100DA00010924B0110924A0190934901809348019F
:100DB000898D811192C08E899D89913A49F4813241
:100DC00009F07DCF47E050E064E071E080E0B3CF10
:100DD000913209F074CF833269F48F89988DB0E035
:100DE000A0E08093000190930101A0930201B093D1
:100DF0000301ADCE803269F48091E80082FFFCCF20
:100E000067E084E091E00E9419038BEF8093E80093
:100E10009ECE823209F09BCE8F8980930B01EEEF3C
:100E2000FFE7859194918B3F9C4D51F1E0E0F8E014
:100E30008091040190910501A0910601B0910701F4
:100E4000803B9440A105B105F1F480910B0180FD38
:100E50001AC0EE3F8AE0F80789F587E797E79183A4
:100E600080838091600080934C0188E19BE00FB605
:100E7000F894A895809360000FBE9093600067CEB1
:100E8000EEEFFAE0D5CF808191818737974709F05F
:100E90005ECEA8958091600088618093600080910B
:100EA0004C0180936000EE3F2AE0F20789F08091C8
:100EB000FE0A9091FF0A9183808349CE80819181BF
:100EC0008737980751F29093FF0A8093FE0AC5CFA7
:100ED0001092FF0A1092FE0A3ACE0E943F01DC01F6
:100EE00012960D911C910115110509F4E8CED80157
:100EF000ED91FC910190F081E02DBE016B5E7F4F82
:100F0000C8010995811123CEF80100851185EBCF29
:100F1000181619060CF41BCED2CEF1E0FF12BECE8D
:100F200062EF70E004CF789484B5826084BD84B5AC
:100F3000816084BD85B5826085BD85B5816085BDD4
:100F400080916E00816080936E001092810080918C
:100F50008100826080938100809181008160809314
:100F60008100809180008160809380008091910059
:100F700082608093910080919100816080939100C4
:100F8000809190008160809390008091C100846086
:100F90008093C1008091C10082608093C1008091E4
:100FA000C10081608093C1008091C3008160809303
:100FB000C3008091C00082608093C0008091C20015
:100FC00081608093C20080917A00846080937A006F
:100FD00080917A00826080937A0080917A008160AB
:100FE00080937A0080917A00806880937A001092D2
:100FF0006C0110924F0110924E018091D7008160D8
:101000008093D70080EA8093D80089B5806189BD3C
:1010100089B5826089BD09B400FEFDCF0E944902F6
:101020008091D8008F7C80618093D8008091E0000F
:10103000807F8093E0008091E1008E7E8093E100CC
:101040008DE08093E200559A209A5D9828988FEF62
:101050009FEF90937A018093790188E291E00E945A
:10106000280461E083E00E94F30160E083E10E94D4
:10107000F30160E084E10E94F3018EE1E82E81E05B
:10108000F82E44244A9493E0592E612C712C25E9C2
:10109000A22E21E0B22E30E0C32E30E0D32E48E65F
:1010A000842E99249394F701849120917B00982FAA
:1010B000990F990F90722F7D922B90937B008770E0
:1010C000806480937C0080917A00806480937A00B1
:1010D00080917A0086FDFCCF80917800A091790004
:1010E000BA2FA82F2FEF30E00E940C0AA301920123
:1010F0000E94B609E901890161E083E00E94F301E1
:101100002097C1F580E00E949F0183E10E94CA01FF
:1011100084E10E94CA0183E10E94CA01C1E0892BD7
:1011200009F4C0E0C093550180915401C81709F437
:10113000E4C084E10E94CA014091520150915301E0
:101140002091500130915101C817190609F4E0C0EF
:101150004F5F5F4F50935301409352012F5F3F4FBA
:101160002836F1E03F070CF092C0309351012093F4
:10117000500191C0CF3FD10511F481E0C4CFF501FA
:101180008491EFEFE80FEF3008F07CC0F0E0E5531A
:10119000F74F0C94060ADA08DF08E408EE08F808AE
:1011A00042094209420902090C09160920092D09C0
:1011B0004209350984B5806884BDC7BDA6CF84B512
:1011C000806284BDC8BDA1CF80918000806880937B
:1011D0008000D0938900C093880097CF80918000D1
:1011E000806280938000D0938B00C0938A008DCF63
:1011F00080918000886080938000D0938D00C093A0
:101200008C0083CF80919000806880939000D09371
:101210009900C093980079CF80919000806280936C
:101220009000D0939B00C0939A006FCF8091900064
:10123000886080939000D0939D00C0939C0065CF00
:101240008091C00080688093C0008091C0008F7B37
:101250008093C000C093CF0058CF8091C0008062BF
:101260008093C000C093D00050CF8091C2008860AE
:101270008093C2008091C2008B7F8093C200C09394
:10128000D20043CF003811050CF077CF3BCF10923E
:1012900051011092500180915201909153014E974B
:1012A00024F010925301109252018EE291E00E94BC
:1012B0009A046091500170915101072E000C880B27
:1012C000990B97FF36C00E94790489E391E00E9450
:1012D0009A048EE391E00E949A0460915201709109
:1012E0005301072E000C880B990B97FF26C00E9414
:1012F000790485E291E00E94280480915501809351
:101300005401C114D10409F4CECE0E940000CBCE0A
:1013100041505109509353014093520121503109DA
:10132000121613060CF421CF9092510180925001B5
:10133000B2CF4AE00E943504C8CF4AE00E9435048B
:10134000D8CFEDE6F1E01382128288EE93E0A0E0C0
:10135000B0E084839583A683B78380E191E0918395
:1013600080838FEF9FEF958784870895052E97FBE5
:101370001EF400940E94CD0957FD07D00E94D509A4
:1013800007FC03D04EF40C94CD0950954095309550
:1013900021953F4F4F4F5F4F0895909580957095E1
:1013A00061957F4F8F4F9F4F0895A1E21A2EAA1B80
:1013B000BB1BFD010DC0AA1FBB1FEE1FFF1FA21705
:1013C000B307E407F50720F0A21BB30BE40BF50B02
:1013D000661F771F881F991F1A9469F7609570958B
:1013E000809590959B01AC01BD01CF010895A29F0E
:1013F000B001B39FC001A39F700D811D1124911DE9
:10140000B29F700D811D1124911D0895EE0FFF1FD5
:101410000590F491E02D09940E94F709B7FF089513
:0A142000821B930B0895F894FFCF90
:10142A00FFFFFFFF00E100000000000000000000D5
:10143A00A7032603C803BD030E04CC03EA0300C1B5
:10144A0080810000000D0A00536574757000506FAA
:10145A00736974696F6E3A20002064656700636F70
:08146A00756E7465723A2000F2
:00000001FF
