:100000000C94CC000C94F4000C94F4000C94F400C8
:100010000C94F4000C94F4000C94F4000C94F40090
:100020000C94F4000C94F4000C94F9060C946807FA
:100030000C94F4000C94F4000C94F4000C94F40070
:100040000C94F4000C94F4000C94F4000C94F40060
:100050000C94F4000C94F4000C94F4000C94AF068F
:100060000C94F4000C94F4000C94F4000C94F40040
:100070000C94F4000C94F4000C94F4000C94F40030
:100080000C94F4000C94F4000C94F4000C94F40020
:100090000C949A090C94F4000C94F4000C94F40061
:1000A0000C94F4000C94F4000C94F400080B00027F
:1000B0000202000009040000010202000005240001
:1000C0001001052401010104240206052406000193
:1000D0000705810310004009040100020A00000026
:1000E00007050202400000070583024000000403E8
:1000F000090412010002EF02014041233780000190
:100100000102030141726475696E6F204C4C43001B
:1001100041726475696E6F204D6963726F000706E6
:1001200005040100080A0B0C0D0900000000250061
:1001300028002B002E0031000404040404030405ED
:100140000202020204030202020206060606060674
:10015000040402020204040408020110408040105A
:1001600020408040800802040180402010020110DD
:100170008010204040200000000200090F00000312
:100180000401000C0000000000000000000000005E
:10019000000000000000B90A11241FBECFEFDAE012
:1001A000DEBFCDBF11E0A0E0B1E0E4E3F8E102C0C2
:1001B00005900D92AA36B107D9F722E0AAE6B1E080
:1001C00001C01D92AF39B207E1F710E0CCECD0E0EE
:1001D00004C02197FE010E94120CCB3CD107C9F745
:1001E0000E94DA0A0C94180C0C940000FC01809117
:1001F000F201882311F13FB7F89482E08093E9007F
:100200002091F200822F90E01816190614F481E074
:1002100090E0882339F0289A44E64093F101409118
:10022000F1004083222339F02091F200211103C014
:100230002BE62093E8003FBF08958FEF9FEF0895CE
:100240002FB7F89483E08093E9009091E800892F1C
:10025000807295FF04C09091F20080E4891B2FBF4B
:1002600008958091E90181110DC082E08093E5013C
:1002700084E08093E6011092E8011092E70181E0AA
:100280008093E90185EE91E00895282F30E0F9018F
:10029000EA58FE4F9491F901E95AFE4F8491285C87
:1002A0003E4FF9012491222309F430C09923E9F04B
:1002B00091509F30D0F4E92FF0E0EF59FE4F0C94AD
:1002C000120C8F019301700187018B01750175017B
:1002D000750196019C01A001A401AA017501AE015E
:1002E000909180009F7790938000E22FF0E0EE0FD6
:1002F000FF1FE65DFE4FA591B4919FB7F894EC9176
:10030000611132C080958E238C939FBF0895909188
:1003100080009F7DE8CF90918000977FE4CF94B5D7
:100320009F7794BDE2CF94B59F7DFBCF90919000D5
:100330009F7790939000D9CF909190009F7DF9CFB7
:1003400090919000977FF5CF9091C0009F77909308
:10035000C000CBCF9091C0009F7DF9CF9091C2009B
:10036000977F9093C200C1CF8E2BCECF8251E82FC2
:10037000F0E0E25EFE4FE49190917B008E2F880FBB
:10038000880F80729F7D892B80937B00E770E064EB
:10039000E0937C0080917A00806480937A00809161
:1003A0007A0086FDFCCF80917800909179000895C5
:1003B0003FB7F8948091E1019091E201A091E301AF
:1003C000B091E40126B5A89B05C02F3F19F0019616
:1003D000A11DB11D3FBFBA2FA92F982F8827BC019F
:1003E000CD01620F711D811D911D42E0660F771FC7
:1003F000881F991F4A95D1F708958F929F92AF92C7
:10040000BF92CF92DF92EF92FF924B015C010E946C
:10041000D8016B017C010E94D8016C197D098E09FD
:100420009F09683E734081059105A8F321E0821A77
:100430009108A108B10888EEC80E83E0D81EE11C1F
:10044000F11C81149104A104B10429F7FF90EF90ED
:10045000DF90CF90BF90AF909F908F9008950895B8
:1004600008954091D0015091D1012091CE01309159
:10047000CF0142175307B4F49091E8009570E1F36F
:100480009091E80092FD19C08093F1008091D00115
:100490009091D10101968F739927892B19F48EEFD2
:1004A0008093E8008091D0019091D10101969093C2
:1004B000D1018093D00181E0089580E00895EF920A
:1004C000FF920F931F93CF93DF93F82E192FE62EF1
:1004D000042F81E0860F880F0E94310283E00E9482
:1004E0003102CF2DD12FEC0EFD2EF11CCE15DF05E4
:1004F000B9F007FF13C0FE0184910E943102182F4A
:1005000080E00E943102812321968111EFCFDF919B
:10051000CF911F910F91FF90EF9008958881EDCFBB
:1005200081E0F5CFDF92EF92FF920F931F93CF936D
:10053000DF93D82E8A01EB017B01E40EF51ECE1568
:10054000DF0559F0D7FE12C0FE0184910E943102EE
:1005500021968111F4CF0FEF1FEFC801DF91CF91EA
:100560001F910F91FF90EF90DF9008958881EECF5B
:100570000F931F93CF93DF931F92CDB7DEB782E027
:10058000898342E450E06CEA70E080E80E949202C5
:100590000E943101DC0112960D911C91011511058B
:1005A00089F0D801ED91FC910280F381E02DBE012C
:1005B0006F5F7F4FC801099597FD04C0F801008562
:1005C0001185ECCF89810F90DF91CF911F910F9111
:1005D0000895615030F02091F100FC0120830196D4
:1005E000F8CF289A84E68093F10108958F929F9224
:1005F000AF92BF92CF92DF92EF92FF920F931F9331
:10060000CF93DF936C017B018A0180910B018823DA
:1006100009F45CC08091F201882309F457C08091ED
:10062000D40180FF05C08091E00082608093E000EB
:10063000E801B12C8AEFA82E93E0892E2AE3922EAE
:10064000209711F4BB20D9F10E94200181110AC02A
:10065000AA94AA20D9F161E070E080E090E00E94C5
:10066000FD01EECF8C171D0611F00CF08C2F9FB7FB
:10067000F8948092E9002091E80025FD02C09FBF18
:10068000DFCF282F30E0C21BD30BF701815020F0C1
:1006900041914093F100FACFE20EF31EBB2021F00E
:1006A0009092E800B12CEBCF8091E80085FDE7CF78
:1006B0009092E800BB24B394209709F3F3CF5D9A9E
:1006C00084E68093D301101611063CF081E090E09F
:1006D000F6019383828310E000E0C801DF91CF919F
:1006E0001F910F91FF90EF90DF90CF90BF90AF9050
:1006F0009F908F900895CF93DF931F92CDB7DEB771
:100700006983DC01ED91FC910280F381E02D41E0F1
:1007100050E0BE016F5F7F4F09950F90DF91CF9141
:10072000089583E08093E9008091F200882319F016
:100730008AE38093E80008950E94200190E00895E4
:10074000CF93DF931F92CDB7DEB7FC0184859585EB
:1007500097FD08C02FEF3FEF358724870F90DF917B
:10076000CF910895CE0101960E94F600019719F4E9
:10077000898190E0F3CF8FEF9FEFF0CF0F931F931E
:10078000CF93DF931F92CDB7DEB78C01FC01848538
:10079000958597FF0BC0CE0101960E94F600019748
:1007A00071F4898190E0F80195878487F801848548
:1007B00095850F90DF91CF911F910F9108958FEF45
:1007C0009FEFF1CFFC018485958597FD0BC09FB706
:1007D000F89482E08093E9008091F2009FBF90E05E
:1007E000019608959FB7F89482E08093E900809184
:1007F000F2009FBF90E008952091AB01260F3327B0
:10080000331F21323105ECF420911902FC0190E0F4
:1008100080E0243069F082E00895A091AB0121913D
:10082000AC0145575E4FA40FB52FB11D2C93019617
:10083000861798F38091AB01680F6093AB0180E05D
:10084000089581E008951092190281E080931802C2
:100850001092F30161E082E00E94450161E083E0D3
:100860000E944501E9EBF0E080818E7F80838081EA
:100870008D7F808388E48093B80085E48093BC00FA
:100880000895CF93DF9391E090938A018823B9F084
:10089000C091B800D091BA008091BC008A7B80934F
:1008A000BC0060E082E00E94450160E083E00E94BD
:1008B00045010E942304D093BA00C093B800DF9191
:1008C000CF910895CF92DF92EF92FF920F931F93F3
:1008D000CF93DF93D091420281E0D13208F09CC0E7
:1008E000C09141020E94D8016B017C0180911902E4
:1008F00081116CC082E08093190281E0809318021C
:100900008FEF8093170210921602D0931502A1E286
:10091000B2E0E5EFF1E080E0D8138DC01092F40171
:100920008091F401CC0FC82BC093F4018091F301A6
:10093000813009F084C01092F3010E94D8016B014C
:100940007C018091F4018093BB0080911B02909107
:100950001C02A0911D02B0911E02892B8A2B8B2BA9
:10096000A1F00E94D80100911B0210911C0220915D
:100970001D0230911E026C197D098E099F09061710
:1009800017072807390708F442C08091BC0083FD8F
:10099000D8CF85EC8093BC000E94D8016B017C010C
:1009A00080911902823009F44CC0809117028F3F68
:1009B00009F469C080911702803209F466C0809101
:1009C0001702803309F463C084E026C080911B02C3
:1009D00090911C02A0911D02B0911E02892B8A2BBE
:1009E0008B2B09F483CF0E94D80100911B02109138
:1009F0001C0220911D0230911E026C197D098E0986
:100A00009F09061717072807390708F06FCF80914D
:100A10001A020E94410485E01092200210924202C4
:100A200010921F02DF91CF911F910F91FF90EF90D5
:100A3000DF90CF9008959D9191938F5F6DCF85EE5C
:100A4000A9CF80911B0290911C02A0911D02B09130
:100A50001E02892B8A2B8B2B09F4A2CF0E94D8016E
:100A600000911B0210911C0220911D0230911E0268
:100A70006C197D098E099F09061717072807390782
:100A800008F08ECFC4CF80E0C7CF82E0C5CF83E02F
:100A9000C3CF0895E091DB018091DA01E81730F4CB
:100AA000F0E0E659FE4F808190E008958FEF9FEFD0
:100AB00008959091DB018091DA012FEF3FEF9817B5
:100AC00048F4E92FF0E0E659FE4F208130E09F5FC7
:100AD0009093DB01C90108958091DA019091DB01C7
:100AE000891B990B0895CF92DF92EF92FF920F939B
:100AF0001F93CF93DF937C01CB018A0120911F02CA
:100B0000222389F0EB016B01C40ED51ECC15DD0547
:100B100069F06991D701ED91FC910190F081E02D90
:100B2000C7010995F3CF642F0E94FC03C801DF9130
:100B3000CF911F910F91FF90EF90DF90CF9008958C
:100B4000CF93DF931F92CDB7DEB7698320911F0249
:100B50002223F9F020914202203258F021E030E0C7
:100B6000FC013383228390E080E00F90DF91CF91EE
:100B7000089580912002E82FF0E0EF5DFD4F99810C
:100B800090838F5F809320028093420281E090E007
:100B9000ECCF61E0CE0101960E94FC03F7CF682FF5
:100BA00083E992E00C94A00590E080E00895FC01B8
:100BB00001900020E9F73197AF01481B590BBC01A8
:100BC00083E492E00C94F602CF93DF930E94D70562
:100BD000EC0187E391E00E94D7058C0F9D1FDF9108
:100BE000CF9108958F929F92AF92BF92CF92DF9252
:100BF000EF92FF920F931F93CF93DF93CDB7DEB7A2
:100C0000A1970FB6F894DEBF0FBECDBF6C01990F50
:100C1000EE08FF08F7FE47C06DE283E492E00E9411
:100C20007B038C0122273327A9012C193D094E098A
:100C30005F0919A2CE0181967C019AE0892E912C40
:100C4000A12CB12CCA01B901A50194010E94F00B9D
:100C5000605DF70162937F01211531054105510562
:100C600089F790E080E0309719F0CF010E94D70516
:100C7000080F191F87E391E00E94D705800F911F8D
:100C8000A1960FB6F894DEBF0FBECDBFDF91CF9116
:100C90001F910F91FF90EF90DF90CF90BF90AF909A
:100CA0009F908F900895A701960119A28E010F5D64
:100CB0001F4F8AE0C82ED12CE12CF12CCA01B901BA
:100CC000A70196010E94F00B605DF80162938F010D
:100CD000211531054105510589F7309729F0CF01DC
:100CE0000E94D7058C01C6CF10E000E0C3CF85ED90
:100CF0008093BC0080911B0290911C02A0911D0268
:100D0000B0911E020796A11DB11D23E0B695A795CF
:100D1000979587952A95D1F72091BC0024FD03C0B3
:100D200010921902089540911B0250911C0260918B
:100D30001D0270911E02452B462B472B69F300972D
:100D4000A105B10541F025E32A95F1F700000197CF
:100D5000A109B109E1CF80911A020C9441041F92BC
:100D60000F920FB60F9211242F933F938F939F935F
:100D7000AF93BF938091DD019091DE01A091DF01DF
:100D8000B091E0013091DC0123E0230F2D3758F5BD
:100D90000196A11DB11D2093DC018093DD0190938C
:100DA000DE01A093DF01B093E0018091E101909119
:100DB000E201A091E301B091E4010196A11DB11DF2
:100DC0008093E1019093E201A093E301B093E401E9
:100DD000BF91AF919F918F913F912F910F900FBE37
:100DE0000F901F90189526E8230F0296A11DB11DA4
:100DF000D2CF1F920F920FB60F9211248F939F9311
:100E00008091E1009091E100937F9093E10083FF56
:100E10000FC01092E90091E09093EB001092EC006B
:100E200092E39093ED001092F20198E09093F0001D
:100E300082FF22C093E09093E9009091F200992301
:100E400019F09AE39093E8009091D301992341F02F
:100E50009091D30191509093D301911101C05D986D
:100E60009091F101992341F09091F101915090936B
:100E7000F101911101C0289884FF18C08091E2000F
:100E80008E7E81608093E2008091E1008F7E80936E
:100E9000E1008091D4018E7E80618093D4019F9186
:100EA0008F910F900FBE0F901F90189580FFF7CF76
:100EB0008091E2008E7E80618093E2008091E1006B
:100EC0008E7E8093E1008091D4018E7E8160E5CF9B
:100ED0001F920F920FB60F921124CF92DF92EF92D2
:100EE000FF920F931F932F933F934F935F936F93B3
:100EF0007F938F939F93AF93BF93EF93FF93CF9382
:100F0000DF93CDB7DEB76C97DEBFCDBF1092E9009F
:100F10008091E80083FF25C068E0CE0145960E94DD
:100F2000E90282EF8093E8008D8987FF39C09091B4
:100F3000E80090FFFCCF982F907609F034C19E898D
:100F40004F89588D2F89F88C911131C0803861F507
:100F50008091D5018093F1001092F1008EEF809383
:100F6000E8006C960FB6F894DEBF0FBECDBFDF91E0
:100F7000CF91FF91EF91BF91AF919F918F917F9111
:100F80006F915F914F913F912F911F910F91FF9022
:100F9000EF90DF90CF900F900FBE0F901F9018959D
:100FA0009EEF9093E800C7CF1092F100D5CF91301B
:100FB00059F48111D3CF4130510581F68091D5018B
:100FC0008D7F8093D501CACF933049F48111C6CF6C
:100FD0004130510519F68091D5018260F2CF9530EC
:100FE00041F48091E80080FFFCCF20682093E3006B
:100FF000B5CF963009F0A9C00B8D1C8D22E0109260
:10100000E9001092D1011092D001F2122EC010927C
:10101000CF011092CE010E94B8021F8299E09983FD
:10102000FA8291E09E8390EA98879AEF99872091BF
:10103000D0013091D101275F3F4F3C832B838D83BB
:101040001092E9001092D1011092D0011093CF01BB
:101050000093CE0149E050E0BE016F5F7F4F80E01A
:101060000E9492020E94B80279CF1093CF010093A0
:10107000CE010E943101DC0112960D911C910115E7
:10108000110509F451C1D801ED91FC910480F5815D
:10109000E02DBE016B5E7F4FC8010995009709F0F6
:1010A0003EC1F80100851185EACFF3E0FF120EC0C2
:1010B0008F89882309F440C0823061F440E86DE0F4
:1010C00080E191E00E945F02811148CF81E280932C
:1010D000EB0047CF813029F440E86BE084E091E0F9
:1010E000F1CF833099F70E943101DC011296ED9027
:1010F000FC908E010F5F1F4F6801E114F10479F03D
:10110000D701ED91FC910680F781E02DB801C70170
:101110000995080F111DF701E084F184EECFD80185
:101120001C92F60101900020E9F73197BF016C197C
:101130007D0940E0C601C6CF6EEE70E0FB01449130
:1011400050E080E80E94920209CF973009F4BECFA8
:10115000983021F481E08093F10000CF993009F0BC
:10116000FDCE837009F0B2CFEDE0F1E081E031E037
:1011700096E32191222371F08093E9003093EB00F4
:10118000DF0111972C912093EC009093ED008F5F7D
:10119000873079F78EE78093EA001092EA008F8912
:1011A0008093F201DBCE8B8D9C8D1092E900109222
:1011B000D1011092D0019093CF018093CE01898DFF
:1011C000811192C08E899D89913A49F4813209F04A
:1011D0007DCF47E050E064E071E080E0B3CF913232
:1011E00009F074CF833269F48F89988DB0E0A0E064
:1011F0008093000190930101A0930201B093030139
:10120000ADCE803269F48091E80082FFFCCF67E0C8
:1012100084E091E00E94E9028BEF8093E8009ECE8B
:10122000823209F09BCE8F8980930B01EEEFFFE7AE
:10123000859194918B3F9C4D51F1E0E0F8E08091D5
:10124000040190910501A0910601B0910701803B36
:101250009440A105B105F1F480910B0180FD1AC005
:10126000EE3F8AE0F80789F587E797E79183808367
:10127000809160008093D20188E19BE00FB6F894E2
:10128000A895809360000FBE9093600067CEEEEF4C
:10129000FAE0D5CF808191818737974709F05ECEFC
:1012A000A895809160008861809360008091D20150
:1012B00080936000EE3F2AE0F20789F08091FE0AF9
:1012C0009091FF0A9183808349CE808191818737F5
:1012D000980751F29093FF0A8093FE0AC5CF1092AF
:1012E000FF0A1092FE0A3ACE0E943101DC011296EA
:1012F0000D911C910115110509F4E8CED801ED916D
:10130000FC910190F081E02DBE016B5E7F4FC80122
:101310000995811123CEF80100851185EBCF1816B0
:1013200019060CF41BCED2CEF1E0FF12BECE62EF56
:1013300070E004CF1F920F920FB60F9211242F93DB
:101340003F934F935F936F937F938F939F93AF934D
:10135000BF93EF93FF938091B900887F803609F4A3
:101360004AC0F0F5883209F4A7C018F5803109F4B5
:101370009BC0B8F4882309F4F9C0883009F494C0FC
:10138000FF91EF91BF91AF919F918F917F916F915D
:101390005F914F913F912F910F900FBE0F901F9033
:1013A0001895883109F488C0803251F7809317026C
:1013B00014C0803409F49DC040F48033B9F38833FD
:1013C000F9F68093170285ECB0C0803509F485C02A
:1013D000883509F496C0883499F60E947706D0CFF4
:1013E000883909F48CC038F5883729F050F48836EC
:1013F00011F0803729F683E0809319021092CD0115
:1014000057C0883809F47BC0803919F0803809F05A
:10141000B7CF8091CD01803208F071C0E091CD014D
:1014200081E08E0F8093CD018091BB00F0E0E35509
:10143000FE4F80833DC0803B39F0E0F4803A09F4F0
:1014400079C0883A09F09CCF84E080931902109209
:10145000AC011092AB01E091D801F091D90109954E
:101460008091AB0181110FC081E08093AB0110929C
:101470008B0109C0803C09F4A6CF883C09F4A3CFB6
:10148000883B09F07DCFE091AC0181E08E0F809325
:10149000AC01F0E0E557FE4F80818093BB00909156
:1014A000AC018091AB0129C08091F4018093BB0015
:1014B00085EC8093BC0064CF909116028091150258
:1014C000981758F5E091160281E08E0F809316026E
:1014D000F0E0EB50FE4F8081E9CFE091160281E011
:1014E0008E0F809316028091BB00F0E0EB50FE4F10
:1014F000808390911602809115029817C8F285E8B2
:10150000D8CFE091160281E08E0F80931602809171
:10151000BB00F0E0EB50FE4F8083809118028111F8
:101520005CCF81E08093F30184EA8093BC00109249
:10153000190226CF85EC8093BC001092190280918D
:10154000CD01803230F4E091CD01F0E0E355FE4F63
:1015500010826091CD0170E0E091D601F091D70149
:101560008DEA91E009951092CD010ACF10921702F1
:1015700034CFE3E4F2E01382128288EE93E0A0E03D
:10158000B0E084839583A683B78327E131E031837C
:1015900020832FEF3FEF35872487E3E9F2E01382C2
:1015A000128284839583A683B78389E291E0918335
:1015B00080830895789484B5826084BD84B5816009
:1015C00084BD85B5826085BD85B5816085BD80910E
:1015D0006E00816080936E00109281008091810086
:1015E000826080938100809181008160809381007E
:1015F0008091800081608093800080919100826062
:1016000080939100809191008160809391008091FE
:1016100090008160809390008091C10084608093ED
:10162000C1008091C10082608093C1008091C1009F
:1016300081608093C1008091C30081608093C3006A
:101640008091C00082608093C0008091C200816060
:101650008093C20080917A00846080937A008091A8
:101660007A00826080937A0080917A008160809312
:101670007A0080917A00806880937A001092F2015B
:101680001092D5011092D4018091D700816080938F
:10169000D70080EA8093D80089B5806189BD89B57B
:1016A000826089BD09B400FEFDCF61E070E080E09A
:1016B00090E00E94FD018091D8008F7C8061809332
:1016C000D8008091E000807F8093E0008091E1006D
:1016D0008E7E8093E1008DE08093E200559A209AFF
:1016E0005D9828988FEF9FEF9093500280934F0260
:1016F0008AE391E00E94D7051092DB011092DA0193
:101700000E9423048FE292E09093D9018093D80144
:1017100080E392E09093D7018093D601C1E0DCEBA7
:1017200000E010E082E10E94B6015C0183E10E94CA
:10173000B6016C0184E10E94B6017C01C0931F02D6
:10174000D0934102109220021092420281E090E078
:101750000E94CF0590E080E00E94CF050E946204C5
:1017600068EB7BE080E090E00E94FD01C0931F02E7
:10177000109220021092420281E090E00E94CF0578
:1017800080E890E00E94CF050E94620468EB7BE055
:1017900080E090E00E94FD0180E491E00E94E40579
:1017A000C5010E94F2058CE491E00E94E405C601A7
:1017B0000E94F20585E591E00E94E405C7010E94C0
:1017C000F2058EE591E00E94E40580E890E00E9439
:1017D000F2050115110509F4A5CF0E940000A2CF62
:1017E000A1E21A2EAA1BBB1BFD010DC0AA1FBB1F25
:1017F000EE1FFF1FA217B307E407F50720F0A21B97
:10180000B30BE40BF50B661F771F881F991F1A9403
:1018100069F760957095809590959B01AC01BD012D
:10182000CF010895EE0FFF1F0590F491E02D09946C
:04183000F894FFCF5A
:10183400FFFFFFFF00E100000000000000C1808105
:10184400000000000000007B03F6029C039103E209
:1018540003A003BE0300000000A0057305D40549DE
:10186400056C0559054A050D0A0053657475700029
:1018740073656E736F7256616C7565006368616E33
:101884006E656C41006368616E6E656C42007370D6
:0A18940065656456616C756500001F
:00000001FF
